{
  "address": "0x5d7A7c08Fa8f2eD91A440dB4989327b79CB12B28",
  "abi": [
    {
      "inputs": [
        {
          "internalType": "address",
          "name": "_endpoint",
          "type": "address"
        },
        {
          "internalType": "address",
          "name": "_delegate",
          "type": "address"
        },
        {
          "internalType": "address",
          "name": "_verifyFields",
          "type": "address"
        },
        {
          "internalType": "address",
          "name": "_verifyMessage",
          "type": "address"
        }
      ],
      "stateMutability": "nonpayable",
      "type": "constructor"
    },
    {
      "inputs": [
        {
          "internalType": "uint256",
          "name": "required",
          "type": "uint256"
        },
        {
          "internalType": "uint256",
          "name": "provided",
          "type": "uint256"
        }
      ],
      "name": "InsufficientFee",
      "type": "error"
    },
    {
      "inputs": [],
      "name": "InvalidDelegate",
      "type": "error"
    },
    {
      "inputs": [],
      "name": "InvalidEndpointCall",
      "type": "error"
    },
    {
      "inputs": [
        {
          "internalType": "uint16",
          "name": "optionType",
          "type": "uint16"
        }
      ],
      "name": "InvalidOptionType",
      "type": "error"
    },
    {
      "inputs": [],
      "name": "LzTokenUnavailable",
      "type": "error"
    },
    {
      "inputs": [
        {
          "internalType": "uint32",
          "name": "eid",
          "type": "uint32"
        }
      ],
      "name": "NoPeer",
      "type": "error"
    },
    {
      "inputs": [
        {
          "internalType": "uint256",
          "name": "msgValue",
          "type": "uint256"
        }
      ],
      "name": "NotEnoughNative",
      "type": "error"
    },
    {
      "inputs": [
        {
          "internalType": "address",
          "name": "addr",
          "type": "address"
        }
      ],
      "name": "OnlyEndpoint",
      "type": "error"
    },
    {
      "inputs": [
        {
          "internalType": "uint32",
          "name": "eid",
          "type": "uint32"
        },
        {
          "internalType": "bytes32",
          "name": "sender",
          "type": "bytes32"
        }
      ],
      "name": "OnlyPeer",
      "type": "error"
    },
    {
      "inputs": [
        {
          "internalType": "address",
          "name": "owner",
          "type": "address"
        }
      ],
      "name": "OwnableInvalidOwner",
      "type": "error"
    },
    {
      "inputs": [
        {
          "internalType": "address",
          "name": "account",
          "type": "address"
        }
      ],
      "name": "OwnableUnauthorizedAccount",
      "type": "error"
    },
    {
      "inputs": [
        {
          "internalType": "uint8",
          "name": "bits",
          "type": "uint8"
        },
        {
          "internalType": "uint256",
          "name": "value",
          "type": "uint256"
        }
      ],
      "name": "SafeCastOverflowedUintDowncast",
      "type": "error"
    },
    {
      "inputs": [
        {
          "internalType": "address",
          "name": "token",
          "type": "address"
        }
      ],
      "name": "SafeERC20FailedOperation",
      "type": "error"
    },
    {
      "anonymous": false,
      "inputs": [
        {
          "components": [
            {
              "internalType": "uint32",
              "name": "srcEid",
              "type": "uint32"
            },
            {
              "internalType": "bytes32",
              "name": "sender",
              "type": "bytes32"
            },
            {
              "internalType": "uint64",
              "name": "nonce",
              "type": "uint64"
            }
          ],
          "indexed": false,
          "internalType": "struct Origin",
          "name": "origin",
          "type": "tuple"
        },
        {
          "indexed": false,
          "internalType": "bytes",
          "name": "message",
          "type": "bytes"
        }
      ],
      "name": "ArbitraryMessageReceived",
      "type": "event"
    },
    {
      "anonymous": false,
      "inputs": [
        {
          "indexed": true,
          "internalType": "address",
          "name": "previousOwner",
          "type": "address"
        },
        {
          "indexed": true,
          "internalType": "address",
          "name": "newOwner",
          "type": "address"
        }
      ],
      "name": "OwnershipTransferred",
      "type": "event"
    },
    {
      "anonymous": false,
      "inputs": [
        {
          "indexed": false,
          "internalType": "uint32",
          "name": "eid",
          "type": "uint32"
        },
        {
          "indexed": false,
          "internalType": "bytes32",
          "name": "peer",
          "type": "bytes32"
        }
      ],
      "name": "PeerSet",
      "type": "event"
    },
    {
      "anonymous": false,
      "inputs": [
        {
          "components": [
            {
              "internalType": "uint32",
              "name": "srcEid",
              "type": "uint32"
            },
            {
              "internalType": "bytes32",
              "name": "sender",
              "type": "bytes32"
            },
            {
              "internalType": "uint64",
              "name": "nonce",
              "type": "uint64"
            }
          ],
          "indexed": false,
          "internalType": "struct Origin",
          "name": "origin",
          "type": "tuple"
        },
        {
          "indexed": false,
          "internalType": "bytes",
          "name": "message",
          "type": "bytes"
        }
      ],
      "name": "ReadReceived",
      "type": "event"
    },
    {
      "stateMutability": "payable",
      "type": "fallback"
    },
    {
      "inputs": [],
      "name": "BLOCK_CONFIRMATIONS",
      "outputs": [
        {
          "internalType": "uint16",
          "name": "",
          "type": "uint16"
        }
      ],
      "stateMutability": "view",
      "type": "function"
    },
    {
      "inputs": [],
      "name": "CHAIN_CONFIG_VF",
      "outputs": [
        {
          "internalType": "uint16",
          "name": "confirmations",
          "type": "uint16"
        },
        {
          "internalType": "address",
          "name": "toReadFrom",
          "type": "address"
        }
      ],
      "stateMutability": "view",
      "type": "function"
    },
    {
      "inputs": [],
      "name": "CHAIN_CONFIG_VM",
      "outputs": [
        {
          "internalType": "uint16",
          "name": "confirmations",
          "type": "uint16"
        },
        {
          "internalType": "address",
          "name": "toReadFrom",
          "type": "address"
        }
      ],
      "stateMutability": "view",
      "type": "function"
    },
    {
      "inputs": [],
      "name": "CONSERVATIVE_CONFIG",
      "outputs": [
        {
          "internalType": "uint128",
          "name": "gasLimit",
          "type": "uint128"
        },
        {
          "internalType": "uint32",
          "name": "messageSize",
          "type": "uint32"
        },
        {
          "internalType": "uint32",
          "name": "fieldsSize",
          "type": "uint32"
        }
      ],
      "stateMutability": "view",
      "type": "function"
    },
    {
      "inputs": [],
      "name": "DEFAULT_CONFIG",
      "outputs": [
        {
          "internalType": "uint128",
          "name": "gasLimit",
          "type": "uint128"
        },
        {
          "internalType": "uint32",
          "name": "messageSize",
          "type": "uint32"
        },
        {
          "internalType": "uint32",
          "name": "fieldsSize",
          "type": "uint32"
        }
      ],
      "stateMutability": "view",
      "type": "function"
    },
    {
      "inputs": [],
      "name": "MAINNET_PREFIX",
      "outputs": [
        {
          "internalType": "string",
          "name": "",
          "type": "string"
        }
      ],
      "stateMutability": "view",
      "type": "function"
    },
    {
      "inputs": [],
      "name": "OPTIMISTIC_CONFIG",
      "outputs": [
        {
          "internalType": "uint128",
          "name": "gasLimit",
          "type": "uint128"
        },
        {
          "internalType": "uint32",
          "name": "messageSize",
          "type": "uint32"
        },
        {
          "internalType": "uint32",
          "name": "fieldsSize",
          "type": "uint32"
        }
      ],
      "stateMutability": "view",
      "type": "function"
    },
    {
      "inputs": [],
      "name": "READ_CHANNEL_EID_THRESHOLD",
      "outputs": [
        {
          "internalType": "uint32",
          "name": "",
          "type": "uint32"
        }
      ],
      "stateMutability": "view",
      "type": "function"
    },
    {
      "inputs": [],
      "name": "READ_CHANNEL_ID",
      "outputs": [
        {
          "internalType": "uint32",
          "name": "",
          "type": "uint32"
        }
      ],
      "stateMutability": "view",
      "type": "function"
    },
    {
      "inputs": [],
      "name": "READ_FROM_ENDPOINT_ADDRESS",
      "outputs": [
        {
          "internalType": "address",
          "name": "",
          "type": "address"
        }
      ],
      "stateMutability": "view",
      "type": "function"
    },
    {
      "inputs": [],
      "name": "READ_FROM_ENDPOINT_ID",
      "outputs": [
        {
          "internalType": "uint32",
          "name": "",
          "type": "uint32"
        }
      ],
      "stateMutability": "view",
      "type": "function"
    },
    {
      "inputs": [],
      "name": "READ_TO_ENDPOINT_ADDRESS",
      "outputs": [
        {
          "internalType": "address",
          "name": "",
          "type": "address"
        }
      ],
      "stateMutability": "view",
      "type": "function"
    },
    {
      "inputs": [],
      "name": "READ_TO_ENDPOINT_ID",
      "outputs": [
        {
          "internalType": "uint32",
          "name": "",
          "type": "uint32"
        }
      ],
      "stateMutability": "view",
      "type": "function"
    },
    {
      "inputs": [],
      "name": "TESTNET_PREFIX",
      "outputs": [
        {
          "internalType": "string",
          "name": "",
          "type": "string"
        }
      ],
      "stateMutability": "view",
      "type": "function"
    },
    {
      "inputs": [
        {
          "components": [
            {
              "internalType": "uint32",
              "name": "srcEid",
              "type": "uint32"
            },
            {
              "internalType": "bytes32",
              "name": "sender",
              "type": "bytes32"
            },
            {
              "internalType": "uint64",
              "name": "nonce",
              "type": "uint64"
            }
          ],
          "internalType": "struct Origin",
          "name": "_origin",
          "type": "tuple"
        },
        {
          "internalType": "bytes32",
          "name": "_guid",
          "type": "bytes32"
        },
        {
          "internalType": "bytes",
          "name": "_message",
          "type": "bytes"
        },
        {
          "internalType": "address",
          "name": "_executor",
          "type": "address"
        },
        {
          "internalType": "bytes",
          "name": "_extraData",
          "type": "bytes"
        }
      ],
      "name": "_calldataReadLzReceive",
      "outputs": [],
      "stateMutability": "nonpayable",
      "type": "function"
    },
    {
      "inputs": [
        {
          "components": [
            {
              "internalType": "uint32",
              "name": "srcEid",
              "type": "uint32"
            },
            {
              "internalType": "bytes32",
              "name": "sender",
              "type": "bytes32"
            },
            {
              "internalType": "uint64",
              "name": "nonce",
              "type": "uint64"
            }
          ],
          "internalType": "struct Origin",
          "name": "origin",
          "type": "tuple"
        }
      ],
      "name": "allowInitializePath",
      "outputs": [
        {
          "internalType": "bool",
          "name": "",
          "type": "bool"
        }
      ],
      "stateMutability": "view",
      "type": "function"
    },
    {
      "inputs": [],
      "name": "endpoint",
      "outputs": [
        {
          "internalType": "contract ILayerZeroEndpointV2",
          "name": "",
          "type": "address"
        }
      ],
      "stateMutability": "view",
      "type": "function"
    },
    {
      "inputs": [
        {
          "internalType": "uint256",
          "name": "id",
          "type": "uint256"
        }
      ],
      "name": "getVFIdToData",
      "outputs": [
        {
          "components": [
            {
              "internalType": "uint8",
              "name": "verifyType",
              "type": "uint8"
            },
            {
              "internalType": "uint256",
              "name": "vfId",
              "type": "uint256"
            },
            {
              "internalType": "bool",
              "name": "mainnet",
              "type": "bool"
            },
            {
              "internalType": "bool",
              "name": "isValid",
              "type": "bool"
            },
            {
              "components": [
                {
                  "internalType": "uint256",
                  "name": "x",
                  "type": "uint256"
                },
                {
                  "internalType": "uint256",
                  "name": "y",
                  "type": "uint256"
                }
              ],
              "internalType": "struct Point",
              "name": "publicKey",
              "type": "tuple"
            },
            {
              "components": [
                {
                  "internalType": "uint256",
                  "name": "r",
                  "type": "uint256"
                },
                {
                  "internalType": "uint256",
                  "name": "s",
                  "type": "uint256"
                }
              ],
              "internalType": "struct Signature",
              "name": "signature",
              "type": "tuple"
            },
            {
              "internalType": "uint256",
              "name": "messageHash",
              "type": "uint256"
            },
            {
              "internalType": "string",
              "name": "prefix",
              "type": "string"
            },
            {
              "internalType": "uint256[]",
              "name": "fields",
              "type": "uint256[]"
            }
          ],
          "internalType": "struct VerifyFieldsStateCompressed",
          "name": "state",
          "type": "tuple"
        }
      ],
      "stateMutability": "view",
      "type": "function"
    },
    {
      "inputs": [
        {
          "internalType": "uint256",
          "name": "id",
          "type": "uint256"
        }
      ],
      "name": "getVMIdToData",
      "outputs": [
        {
          "components": [
            {
              "internalType": "uint8",
              "name": "verifyType",
              "type": "uint8"
            },
            {
              "internalType": "uint256",
              "name": "vmId",
              "type": "uint256"
            },
            {
              "internalType": "bool",
              "name": "mainnet",
              "type": "bool"
            },
            {
              "internalType": "bool",
              "name": "isValid",
              "type": "bool"
            },
            {
              "components": [
                {
                  "internalType": "uint256",
                  "name": "x",
                  "type": "uint256"
                },
                {
                  "internalType": "uint256",
                  "name": "y",
                  "type": "uint256"
                }
              ],
              "internalType": "struct Point",
              "name": "publicKey",
              "type": "tuple"
            },
            {
              "components": [
                {
                  "internalType": "uint256",
                  "name": "r",
                  "type": "uint256"
                },
                {
                  "internalType": "uint256",
                  "name": "s",
                  "type": "uint256"
                }
              ],
              "internalType": "struct Signature",
              "name": "signature",
              "type": "tuple"
            },
            {
              "internalType": "uint256",
              "name": "messageHash",
              "type": "uint256"
            },
            {
              "internalType": "string",
              "name": "prefix",
              "type": "string"
            },
            {
              "internalType": "string",
              "name": "message",
              "type": "string"
            }
          ],
          "internalType": "struct VerifyMessageStateCompressed",
          "name": "state",
          "type": "tuple"
        }
      ],
      "stateMutability": "view",
      "type": "function"
    },
    {
      "inputs": [
        {
          "components": [
            {
              "internalType": "uint32",
              "name": "srcEid",
              "type": "uint32"
            },
            {
              "internalType": "bytes32",
              "name": "sender",
              "type": "bytes32"
            },
            {
              "internalType": "uint64",
              "name": "nonce",
              "type": "uint64"
            }
          ],
          "internalType": "struct Origin",
          "name": "",
          "type": "tuple"
        },
        {
          "internalType": "bytes",
          "name": "",
          "type": "bytes"
        },
        {
          "internalType": "address",
          "name": "_sender",
          "type": "address"
        }
      ],
      "name": "isComposeMsgSender",
      "outputs": [
        {
          "internalType": "bool",
          "name": "",
          "type": "bool"
        }
      ],
      "stateMutability": "view",
      "type": "function"
    },
    {
      "inputs": [
        {
          "components": [
            {
              "internalType": "uint32",
              "name": "srcEid",
              "type": "uint32"
            },
            {
              "internalType": "bytes32",
              "name": "sender",
              "type": "bytes32"
            },
            {
              "internalType": "uint64",
              "name": "nonce",
              "type": "uint64"
            }
          ],
          "internalType": "struct Origin",
          "name": "_origin",
          "type": "tuple"
        },
        {
          "internalType": "bytes32",
          "name": "_guid",
          "type": "bytes32"
        },
        {
          "internalType": "bytes",
          "name": "_message",
          "type": "bytes"
        },
        {
          "internalType": "address",
          "name": "_executor",
          "type": "address"
        },
        {
          "internalType": "bytes",
          "name": "_extraData",
          "type": "bytes"
        }
      ],
      "name": "lzReceive",
      "outputs": [],
      "stateMutability": "payable",
      "type": "function"
    },
    {
      "inputs": [
        {
          "internalType": "uint32",
          "name": "",
          "type": "uint32"
        },
        {
          "internalType": "bytes32",
          "name": "",
          "type": "bytes32"
        }
      ],
      "name": "nextNonce",
      "outputs": [
        {
          "internalType": "uint64",
          "name": "nonce",
          "type": "uint64"
        }
      ],
      "stateMutability": "view",
      "type": "function"
    },
    {
      "inputs": [],
      "name": "oAppVersion",
      "outputs": [
        {
          "internalType": "uint64",
          "name": "senderVersion",
          "type": "uint64"
        },
        {
          "internalType": "uint64",
          "name": "receiverVersion",
          "type": "uint64"
        }
      ],
      "stateMutability": "pure",
      "type": "function"
    },
    {
      "inputs": [],
      "name": "owner",
      "outputs": [
        {
          "internalType": "address",
          "name": "",
          "type": "address"
        }
      ],
      "stateMutability": "view",
      "type": "function"
    },
    {
      "inputs": [
        {
          "internalType": "uint32",
          "name": "eid",
          "type": "uint32"
        }
      ],
      "name": "peers",
      "outputs": [
        {
          "internalType": "bytes32",
          "name": "peer",
          "type": "bytes32"
        }
      ],
      "stateMutability": "view",
      "type": "function"
    },
    {
      "inputs": [
        {
          "internalType": "enum TYPE",
          "name": "verifyType",
          "type": "uint8"
        },
        {
          "internalType": "uint256",
          "name": "id",
          "type": "uint256"
        },
        {
          "internalType": "uint32",
          "name": "calldataSize",
          "type": "uint32"
        },
        {
          "internalType": "uint128",
          "name": "gasLimit",
          "type": "uint128"
        },
        {
          "internalType": "bool",
          "name": "payInLzToken",
          "type": "bool"
        }
      ],
      "name": "quote",
      "outputs": [
        {
          "components": [
            {
              "internalType": "uint128",
              "name": "gasLimit",
              "type": "uint128"
            },
            {
              "internalType": "uint32",
              "name": "calldataSize",
              "type": "uint32"
            },
            {
              "internalType": "uint256",
              "name": "nativeFee",
              "type": "uint256"
            },
            {
              "internalType": "uint256",
              "name": "lzTokenFee",
              "type": "uint256"
            }
          ],
          "internalType": "struct QuoteResult",
          "name": "",
          "type": "tuple"
        },
        {
          "internalType": "bytes",
          "name": "",
          "type": "bytes"
        },
        {
          "internalType": "bytes",
          "name": "",
          "type": "bytes"
        }
      ],
      "stateMutability": "view",
      "type": "function"
    },
    {
      "inputs": [
        {
          "internalType": "enum TYPE",
          "name": "verifyType",
          "type": "uint8"
        },
        {
          "internalType": "uint256",
          "name": "id",
          "type": "uint256"
        },
        {
          "internalType": "enum MODE",
          "name": "mode",
          "type": "uint8"
        },
        {
          "internalType": "bool",
          "name": "payInLzToken",
          "type": "bool"
        }
      ],
      "name": "quoteAuto",
      "outputs": [
        {
          "components": [
            {
              "internalType": "uint128",
              "name": "gasLimit",
              "type": "uint128"
            },
            {
              "internalType": "uint32",
              "name": "calldataSize",
              "type": "uint32"
            },
            {
              "internalType": "uint256",
              "name": "nativeFee",
              "type": "uint256"
            },
            {
              "internalType": "uint256",
              "name": "lzTokenFee",
              "type": "uint256"
            }
          ],
          "internalType": "struct QuoteResult",
          "name": "",
          "type": "tuple"
        },
        {
          "internalType": "bytes",
          "name": "",
          "type": "bytes"
        },
        {
          "internalType": "bytes",
          "name": "",
          "type": "bytes"
        }
      ],
      "stateMutability": "view",
      "type": "function"
    },
    {
      "inputs": [
        {
          "internalType": "enum TYPE",
          "name": "verifyType",
          "type": "uint8"
        },
        {
          "internalType": "uint256",
          "name": "id",
          "type": "uint256"
        },
        {
          "internalType": "enum MODE",
          "name": "mode",
          "type": "uint8"
        },
        {
          "internalType": "bool",
          "name": "payInLzToken",
          "type": "bool"
        }
      ],
      "name": "readBytesCompressedAuto",
      "outputs": [
        {
          "components": [
            {
              "internalType": "bytes32",
              "name": "guid",
              "type": "bytes32"
            },
            {
              "internalType": "uint64",
              "name": "nonce",
              "type": "uint64"
            },
            {
              "components": [
                {
                  "internalType": "uint256",
                  "name": "nativeFee",
                  "type": "uint256"
                },
                {
                  "internalType": "uint256",
                  "name": "lzTokenFee",
                  "type": "uint256"
                }
              ],
              "internalType": "struct MessagingFee",
              "name": "fee",
              "type": "tuple"
            }
          ],
          "internalType": "struct MessagingReceipt",
          "name": "",
          "type": "tuple"
        }
      ],
      "stateMutability": "payable",
      "type": "function"
    },
    {
      "inputs": [
        {
          "internalType": "enum TYPE",
          "name": "verifyType",
          "type": "uint8"
        },
        {
          "internalType": "uint256",
          "name": "id",
          "type": "uint256"
        },
        {
          "internalType": "uint32",
          "name": "calldataSize",
          "type": "uint32"
        },
        {
          "internalType": "uint128",
          "name": "gasLimit",
          "type": "uint128"
        },
        {
          "internalType": "bool",
          "name": "payInLzToken",
          "type": "bool"
        }
      ],
      "name": "readBytesCompressedManual",
      "outputs": [
        {
          "components": [
            {
              "internalType": "bytes32",
              "name": "guid",
              "type": "bytes32"
            },
            {
              "internalType": "uint64",
              "name": "nonce",
              "type": "uint64"
            },
            {
              "components": [
                {
                  "internalType": "uint256",
                  "name": "nativeFee",
                  "type": "uint256"
                },
                {
                  "internalType": "uint256",
                  "name": "lzTokenFee",
                  "type": "uint256"
                }
              ],
              "internalType": "struct MessagingFee",
              "name": "fee",
              "type": "tuple"
            }
          ],
          "internalType": "struct MessagingReceipt",
          "name": "",
          "type": "tuple"
        }
      ],
      "stateMutability": "payable",
      "type": "function"
    },
    {
      "inputs": [],
      "name": "renounceOwnership",
      "outputs": [],
      "stateMutability": "nonpayable",
      "type": "function"
    },
    {
      "inputs": [
        {
          "internalType": "address",
          "name": "_delegate",
          "type": "address"
        }
      ],
      "name": "setDelegate",
      "outputs": [],
      "stateMutability": "nonpayable",
      "type": "function"
    },
    {
      "inputs": [
        {
          "internalType": "uint32",
          "name": "_eid",
          "type": "uint32"
        },
        {
          "internalType": "bytes32",
          "name": "_peer",
          "type": "bytes32"
        }
      ],
      "name": "setPeer",
      "outputs": [],
      "stateMutability": "nonpayable",
      "type": "function"
    },
    {
      "inputs": [
        {
          "internalType": "uint32",
          "name": "_channelId",
          "type": "uint32"
        },
        {
          "internalType": "bool",
          "name": "_active",
          "type": "bool"
        }
      ],
      "name": "setReadChannel",
      "outputs": [],
      "stateMutability": "nonpayable",
      "type": "function"
    },
    {
      "inputs": [
        {
          "internalType": "address",
          "name": "newOwner",
          "type": "address"
        }
      ],
      "name": "transferOwnership",
      "outputs": [],
      "stateMutability": "nonpayable",
      "type": "function"
    },
    {
      "inputs": [
        {
          "internalType": "uint16",
          "name": "confirmations",
          "type": "uint16"
        }
      ],
      "name": "updateBlockConfirmations",
      "outputs": [],
      "stateMutability": "nonpayable",
      "type": "function"
    },
    {
      "inputs": [
        {
          "internalType": "uint128",
          "name": "gasLimit",
          "type": "uint128"
        },
        {
          "internalType": "uint32",
          "name": "messageSizeBytes",
          "type": "uint32"
        },
        {
          "internalType": "uint32",
          "name": "fieldsSizeBytes",
          "type": "uint32"
        }
      ],
      "name": "updateConservativeModeParams",
      "outputs": [],
      "stateMutability": "nonpayable",
      "type": "function"
    },
    {
      "inputs": [
        {
          "internalType": "uint128",
          "name": "gasLimit",
          "type": "uint128"
        },
        {
          "internalType": "uint32",
          "name": "messageSizeBytes",
          "type": "uint32"
        },
        {
          "internalType": "uint32",
          "name": "fieldsSizeBytes",
          "type": "uint32"
        }
      ],
      "name": "updateDefaultModeParams",
      "outputs": [],
      "stateMutability": "nonpayable",
      "type": "function"
    },
    {
      "inputs": [
        {
          "internalType": "uint128",
          "name": "gasLimit",
          "type": "uint128"
        },
        {
          "internalType": "uint32",
          "name": "messageSizeBytes",
          "type": "uint32"
        },
        {
          "internalType": "uint32",
          "name": "fieldsSizeBytes",
          "type": "uint32"
        }
      ],
      "name": "updateOptimisticModeParams",
      "outputs": [],
      "stateMutability": "nonpayable",
      "type": "function"
    },
    {
      "inputs": [
        {
          "internalType": "uint32",
          "name": "id",
          "type": "uint32"
        }
      ],
      "name": "updateReadChannelId",
      "outputs": [],
      "stateMutability": "nonpayable",
      "type": "function"
    },
    {
      "inputs": [
        {
          "internalType": "address",
          "name": "addr",
          "type": "address"
        }
      ],
      "name": "updateReadFromEndpointAddress",
      "outputs": [],
      "stateMutability": "nonpayable",
      "type": "function"
    },
    {
      "inputs": [
        {
          "internalType": "uint32",
          "name": "id",
          "type": "uint32"
        }
      ],
      "name": "updateReadFromEndpointId",
      "outputs": [],
      "stateMutability": "nonpayable",
      "type": "function"
    },
    {
      "inputs": [
        {
          "internalType": "address",
          "name": "addr",
          "type": "address"
        }
      ],
      "name": "updateReadToEndpointAddress",
      "outputs": [],
      "stateMutability": "nonpayable",
      "type": "function"
    },
    {
      "inputs": [
        {
          "internalType": "uint32",
          "name": "id",
          "type": "uint32"
        }
      ],
      "name": "updateReadToEndpointId",
      "outputs": [],
      "stateMutability": "nonpayable",
      "type": "function"
    },
    {
      "inputs": [
        {
          "internalType": "address",
          "name": "addr",
          "type": "address"
        }
      ],
      "name": "updateVerifyFieldsContract",
      "outputs": [],
      "stateMutability": "nonpayable",
      "type": "function"
    },
    {
      "inputs": [
        {
          "internalType": "address",
          "name": "addr",
          "type": "address"
        }
      ],
      "name": "updateVerifyMessageContract",
      "outputs": [],
      "stateMutability": "nonpayable",
      "type": "function"
    },
    {
      "inputs": [
        {
          "internalType": "uint256",
          "name": "",
          "type": "uint256"
        }
      ],
      "name": "vfIdToData",
      "outputs": [
        {
          "internalType": "uint8",
          "name": "verifyType",
          "type": "uint8"
        },
        {
          "internalType": "uint256",
          "name": "vfId",
          "type": "uint256"
        },
        {
          "internalType": "bool",
          "name": "mainnet",
          "type": "bool"
        },
        {
          "internalType": "bool",
          "name": "isValid",
          "type": "bool"
        },
        {
          "components": [
            {
              "internalType": "uint256",
              "name": "x",
              "type": "uint256"
            },
            {
              "internalType": "uint256",
              "name": "y",
              "type": "uint256"
            }
          ],
          "internalType": "struct Point",
          "name": "publicKey",
          "type": "tuple"
        },
        {
          "components": [
            {
              "internalType": "uint256",
              "name": "r",
              "type": "uint256"
            },
            {
              "internalType": "uint256",
              "name": "s",
              "type": "uint256"
            }
          ],
          "internalType": "struct Signature",
          "name": "signature",
          "type": "tuple"
        },
        {
          "internalType": "uint256",
          "name": "messageHash",
          "type": "uint256"
        },
        {
          "internalType": "string",
          "name": "prefix",
          "type": "string"
        }
      ],
      "stateMutability": "view",
      "type": "function"
    },
    {
      "inputs": [
        {
          "internalType": "uint256",
          "name": "",
          "type": "uint256"
        }
      ],
      "name": "vmIdToData",
      "outputs": [
        {
          "internalType": "uint8",
          "name": "verifyType",
          "type": "uint8"
        },
        {
          "internalType": "uint256",
          "name": "vmId",
          "type": "uint256"
        },
        {
          "internalType": "bool",
          "name": "mainnet",
          "type": "bool"
        },
        {
          "internalType": "bool",
          "name": "isValid",
          "type": "bool"
        },
        {
          "components": [
            {
              "internalType": "uint256",
              "name": "x",
              "type": "uint256"
            },
            {
              "internalType": "uint256",
              "name": "y",
              "type": "uint256"
            }
          ],
          "internalType": "struct Point",
          "name": "publicKey",
          "type": "tuple"
        },
        {
          "components": [
            {
              "internalType": "uint256",
              "name": "r",
              "type": "uint256"
            },
            {
              "internalType": "uint256",
              "name": "s",
              "type": "uint256"
            }
          ],
          "internalType": "struct Signature",
          "name": "signature",
          "type": "tuple"
        },
        {
          "internalType": "uint256",
          "name": "messageHash",
          "type": "uint256"
        },
        {
          "internalType": "string",
          "name": "prefix",
          "type": "string"
        },
        {
          "internalType": "string",
          "name": "message",
          "type": "string"
        }
      ],
      "stateMutability": "view",
      "type": "function"
    },
    {
      "inputs": [],
      "name": "withdraw",
      "outputs": [
        {
          "internalType": "bool",
          "name": "",
          "type": "bool"
        }
      ],
      "stateMutability": "nonpayable",
      "type": "function"
    },
    {
      "inputs": [
        {
          "internalType": "address",
          "name": "tokenAddress",
          "type": "address"
        }
      ],
      "name": "withdrawToken",
      "outputs": [],
      "stateMutability": "nonpayable",
      "type": "function"
    },
    {
      "stateMutability": "payable",
      "type": "receive"
    }
  ],
  "transactionHash": "0x569bfcc9be2a2318d579e85b1c0e37b5ecf0e9d4e3a8036113210c723de0c177",
  "args": [
    "0x1a44076050125825900e736c501f859c50fE728c",
    "0x22b4fD82537573614340314f29bCb2fab182f409",
    "0x643aDFd52cB8c0cb4c3850BF97468b0EFBE71b25",
    "0xB352B0dE8AF1e27a0fc927c1aD38BdB1bc4FCf40"
  ],
  "numDeployments": 1,
  "solcInputHash": "5918c32b9a7025e75e36301bedaab855",
  "bytecode": "0x60a0346200034a57601f6200379338819003918201601f19168301926001600160401b03926000928486118387101762000336578160809284926040988952833981010312620003325762000054816200039d565b602093620000648584016200039d565b90620000806060620000788987016200039d565b95016200039d565b926001600160a01b039283169081156200031a5786546001600160a01b0319811683178855849190839083167f8be0079c531659141344cd1fd0a4f28419497f9722a3daafe3b4186f6b6457e08a80a3169081608052813b156200031657869291602484928b51958693849263ca5eb5e160e01b845260048401525af180156200030c57620002e3575b50507d75951a44076050125825900e736c501f859c50fe728c0000759effffffff60025560018060b01b03199461ffff74031a44076050125825900e736c501f859c50fe728c87600354161796876003556107d08980516200016c816200034f565b620b71b08152610320868201520152751b58000006400000000000000000000000000027ac4060018060c01b03197507d000000320000000000000000000000000000b71b0816004541617600455610ed88b8051620001cb816200034f565b6216e360815261044c888201520152750ed80000044c0000000000000000000000000016e360816005541617600555611b588b80516200020b816200034f565b6227ac408152610640888201520152600654161760065586838a51620002318162000381565b600181520152806007541696838a516200024b8162000381565b600181520152600854169660a01c16948751620002688162000381565b868152828487169101528562010000600160b01b03809660101b16911717600755865191620002978362000381565b858352831691015260101b16911717600855516133e09081620003b3823960805181818161053501528181610dd7015281816116fa015281816124200152818161289e0152612c7e0152f35b8195929511620002f85786529238806200010a565b634e487b7160e01b82526041600452602482fd5b88513d88823e3d90fd5b8680fd5b8851631e4fbdf760e01b815260048101889052602490fd5b5080fd5b634e487b7160e01b84526041600452602484fd5b600080fd5b606081019081106001600160401b038211176200036b57604052565b634e487b7160e01b600052604160045260246000fd5b604081019081106001600160401b038211176200036b57604052565b51906001600160a01b03821682036200034a5756fe6080604052600436101561001b575b361561001957600080fd5b005b60003560e01c806304977c871461032b5780630590c4d9146103265780630c70b57e1461032157806313137d651461031c57806317442b70146103175780631a6f6b77146103125780631c0f20881461030d578063217d9db114610308578063232b7c9d146103035780633400288b146102fe578063383e0957146102f95780633ccfd60b146102f45780633d16f7f5146102ef57806346bbad9d146102ea5780635c070f37146102e55780635c7dd356146102e05780635e280f11146102db57806368d40347146102d6578063715018a6146102d15780637d25a05e146102cc57806382413eac146102c757806389476069146102c25780638da5cb5b146102bd5780638ed462b1146102b85780639d86aa5e146102b3578063a2412f2c146102ae578063a62f0737146102a9578063ab313da8146102a4578063b658ff511461029f578063bb0b6a531461029a578063bd1d4ed614610295578063c417882614610290578063c648fb331461028b578063c6c6db8914610286578063ca5eb5e114610281578063d0b3a3ab1461027c578063d240867d14610277578063d35daac314610272578063d6a29dcd1461026d578063d7ce17ab14610268578063dd114d0d14610263578063e8feb1431461025e578063f0452ee414610259578063f0a9e48114610254578063f1aa5f861461024f578063f2fde38b1461024a578063f444303e14610245578063fd89760e146102405763ff7bd03d0361000e57611d8c565b611d5b565b611d04565b611c78565b611afe565b611ab6565b611a4d565b611a2e565b6119ba565b61197c565b611935565b611873565b6117a9565b611762565b6116c9565b611598565b611562565b61150b565b6114df565b611415565b6113ef565b61136b565b6112ca565b611283565b6111b1565b61105c565b611033565b610f32565b610ed4565b610ead565b610e52565b610e36565b610dc1565b610d28565b610c3f565b610c16565b610beb565b610b81565b610b51565b610ad5565b610ab1565b610a90565b610a18565b6106d8565b6106b6565b61051a565b61040e565b610388565b610340565b600091031261033b57565b600080fd5b3461033b57600036600319011261033b576008546040805161ffff8316815260109290921c6001600160a01b0316602083015290f35b0390f35b63ffffffff81160361033b57565b3461033b57602036600319011261033b576004356103a58161037a565b6103ad612122565b600280546001600160e01b031660e09290921b6001600160e01b031916919091179055005b606090600319011261033b576004356001600160801b038116810361033b57906024356103fe8161037a565b9060443561040b8161037a565b90565b3461033b5761041c366103d2565b610424612122565b6001600160801b036006549163ffffffff60a01b9060a01b169316906001600160401b0360c01b16179063ffffffff60801b9060801b161717600655600080f35b606090600319011261033b57600490565b9181601f8401121561033b578235916001600160401b03831161033b576020838186019501011161033b57565b6001600160a01b0381160361033b57565b600319810160e0811261033b5760601361033b57600491606435916001600160401b039060843582811161033b57816104ef91600401610476565b9390939260a4356104ff816104a3565b9260c43591821161033b5761051691600401610476565b9091565b610523366104b4565b91909495929360018060a01b039433867f0000000000000000000000000000000000000000000000000000000000000000160361069e5784356105658161037a565b61056e8161214e565b602087013580910361066c575063ffffffff8161058f63fffff9be9361037a565b16111561062d57906105a391810190612210565b91303b1561033b576000956105d5956105eb610603956040519a8b998a996378d52fc360e11b8b5260048b0190612197565b606489015260e0608489015260e488019061098c565b931660a48601528483036003190160c48601526121d1565b038183305af180156106285761061557005b8061062261001992610759565b80610330565b611e42565b92509450507f5fa5ca9e9e00aa864db74fad0ea402428388eb93f02d992b72ca6b675b52f6059450610667919250604051938493846121f2565b0390a1005b906106768161037a565b60405163309afaf360e21b815263ffffffff9190911660048201526024810191909152604490fd5b6040516391ac5e4f60e01b8152336004820152602490fd5b3461033b57600036600319011261033b57604080516001815260026020820152f35b3461033b57602036600319011261033b576004356106f58161037a565b6106fd612122565b67ffffffff000000006002549160201b169067ffffffff00000000191617600255600080f35b634e487b7160e01b600052604160045260246000fd5b604081019081106001600160401b0382111761075457604052565b610723565b6001600160401b03811161075457604052565b606081019081106001600160401b0382111761075457604052565b608081019081106001600160401b0382111761075457604052565b60e081019081106001600160401b0382111761075457604052565b60a081019081106001600160401b0382111761075457604052565b90601f801991011681019081106001600160401b0382111761075457604052565b6040519061012082018281106001600160401b0382111761075457604052565b6040519061082682610739565b565b6040519061082682610787565b60405190610826826107bd565b60405190610826826107a2565b6040519060c082018281106001600160401b0382111761075457604052565b9060405161087b81610739565b602060018294805484520154910152565b90600182811c921680156108bc575b60208310146108a657565b634e487b7160e01b600052602260045260246000fd5b91607f169161089b565b906040519182600082546108d98161088c565b908184526020946001916001811690816000146109475750600114610908575b505050610826925003836107d8565b600090815285812095935091905b81831061092f57505061082693508201013880806108f9565b85548884018501529485019487945091830191610916565b9250505061082694925060ff191682840152151560051b8201013880806108f9565b60005b83811061097c5750506000910152565b818101518382015260200161096c565b906020916109a581518092818552858086019101610969565b601f01601f1916010190565b9461040b989794610a04946109f293989460ff6101409a16895260208901521515604088015215156060870152608086019060208091805184520151910152565b805160c08501526020015160e0840152565b61010082015281610120820152019061098c565b3461033b57602036600319011261033b576004356000526009602052604060002060ff81541690610376600182015491600281015490610a5a6003820161086e565b610a666005830161086e565b90610a786008600785015494016108c6565b9360405197889760ff808460081c16931691896109b1565b3461033b57600036600319011261033b57602060025460e01c604051908152f35b3461033b57600036600319011261033b57602063ffffffff60025416604051908152f35b3461033b57604036600319011261033b57610019600435610af58161037a565b610afd612122565b60243590612273565b6001600160401b03811161075457601f01601f191660200190565b60405190610b2e82610739565b6014825273135a5b9854da59db985d1d5c9953585a5b9b995d60621b6020830152565b3461033b57600036600319011261033b57610376610b6d610b21565b60405191829160208352602083019061098c565b3461033b57600080600319360112610be857602090610b9e612122565b8080808060018060a01b0381541647905af1903d15610be2573d90610bc282610b06565b91610bd060405193846107d8565b8252833d92013e5b6040519015158152f35b50610bd8565b80fd5b3461033b57600036600319011261033b576002546040805191901c6001600160a01b03168152602090f35b3461033b57600036600319011261033b576003546040516001600160a01b039091168152602090f35b3461033b57602036600319011261033b57600435610c5c816104a3565b610c64612122565b6001600160a01b0316801561033b576bffffffffffffffffffffffff60a01b6003541617600355600080f35b6003111561033b57565b8015150361033b57565b60a090600319011261033b57600435610cbc81610c90565b9060243590604435610ccd8161037a565b906064356001600160801b038116810361033b579060843561040b81610c9a565b610826909291926040806080830195805184526001600160401b036020820151166020850152015191019060208091805184520151910152565b610d3136610ca4565b91610d3d949394611deb565b50610d4784611e13565b831561033b57604094610d59946120a8565b9290910151803410610da157610376610d95848463ffffffff600254169160405191610d8483610739565b348352600060208401523393612397565b60405191829182610cee565b60405163a458261b60e01b81526004810191909152346024820152604490fd5b3461033b57600036600319011261033b576040517f00000000000000000000000000000000000000000000000000000000000000006001600160a01b03168152602090f35b60405190610e1382610739565b601482527321b7b230a9b4b3b730ba3ab9329515151515151560611b6020830152565b3461033b57600036600319011261033b57610376610b6d610e06565b3461033b57600080600319360112610be857610e6c612122565b80546001600160a01b03198116825581906001600160a01b03167f8be0079c531659141344cd1fd0a4f28419497f9722a3daafe3b4186f6b6457e08280a380f35b3461033b57604036600319011261033b57610ec960043561037a565b602060405160008152f35b3461033b5760a036600319011261033b57610eee36610465565b506064356001600160401b03811161033b57610f0e903690600401610476565b50506020608435610f1e816104a3565b6040516001600160a01b0390911630148152f35b3461033b5760208060031936011261033b57600435610f50816104a3565b6040516370a0823160e01b81523060048201526001600160a01b039182168382602481845afa90811561062857610fce938593600093611004575b50610f97831515611e4e565b6000805460405163a9059cbb60e01b815292166001600160a01b031660048301526024820193909352938492839182906044820190565b03925af1801561062857610fde57005b8161001992903d10610ffd575b610ff581836107d8565b810190611e92565b503d610feb565b611025919350843d861161102c575b61101d81836107d8565b810190611e33565b9138610f8b565b503d611013565b3461033b57600036600319011261033b576000546040516001600160a01b039091168152602090f35b3461033b57602036600319011261033b57600435611079816104a3565b611081612122565b6001600160a01b0381161561033b5761ffff60035460a01c166110a5604051610739565b600780546001600160b01b0319169190911760109290921b62010000600160b01b0316919091179055005b90815180825260208080930193019160005b8281106110f0575050505090565b8351855293810193928101926001016110e2565b9061040b916020815261111d60208201835160ff169052565b6020820151604082015261113a6040830151606083019015159052565b6060820151151560808201526080820151805160a08301526020015160c082015260a0820151805160e08301526020015161010082015260c082015161012082015260e08201519061010061119e610160938461014085015261018084019061098c565b93015191601f19828503019101526110d0565b3461033b57602036600319011261033b576111ca611ea7565b506004356000526009602052610376604060002061127160096111eb6107f9565b926112016111fa825460ff1690565b60ff168552565b60018101546020850152600281015460ff8181161515604087015261122e915b60081c1615156060860152565b61123a6003820161086e565b608085015261124b6005820161086e565b60a0850152600781015460c0850152611266600882016108c6565b60e085015201611f0e565b61010082015260405191829182611104565b3461033b57600036600319011261033b57600654604080516001600160801b038316815263ffffffff608084901c8116602083015260a09390931c90921690820152606090f35b3461033b57600036600319011261033b57602061ffff60035460a01c16604051908152f35b97946113359061135c97929561040b9b99956113479560ff61016099168d5260208d0152151560408c0152151560608b015260808a019060208091805184520151910152565b805160c08901526020015160e0880152565b6101008601528061012086015284019061098c565b9161014081840391015261098c565b3461033b57602036600319011261033b57600435600052600a602052604060002060ff815416906103766001820154916002810154906113ad6003820161086e565b6113b96005830161086e565b6007830154916113d760096113d0600887016108c6565b95016108c6565b9460405198899860ff808460081c169316918a6112ef565b3461033b57600036600319011261033b57602060025463ffffffff60405191831c168152f35b3461033b57602036600319011261033b5763ffffffff6004356114378161037a565b1660005260016020526020604060002054604051908152f35b608090600319011261033b5760043561146881610c90565b906024359060443561147981610c90565b9060643561040b81610c9a565b916114d190606061040b95936001600160801b03815116865263ffffffff6020820151166020870152604081015160408701520151606085015260c0608085015260c084019061098c565b9160a081840391015261098c565b3461033b576103766114fc6114f336611450565b92919091611f84565b60409391935193849384611486565b3461033b57611519366103d2565b611521612122565b6001600160801b036005549163ffffffff60a01b9060a01b169316906001600160401b0360c01b16179063ffffffff60801b9060801b161717600555600080f35b3461033b57600036600319011261033b576007546040805161ffff8316815260109290921c6001600160a01b0316602083015290f35b3461033b57602036600319011261033b5760043561ffff80821680830361033b576115c1612122565b1561033b576003805461ffff60a01b191660a09390931b61ffff60a01b16929092179182905560075461165f929161162b9161161b9060101c6001600160a01b03169161160c610819565b9460a01c16849061ffff169052565b6001600160a01b03166020830152565b61ffff81511660075491602062010000600160b01b0391015160101b169169ffffffffffffffffffff60b01b161717600755565b6003546100199060a01c61ffff166008546116959060101c6001600160a01b031661161b61168b610819565b61ffff9094168452565b61ffff81511660085491602062010000600160b01b0391015160101b169169ffffffffffffffffffff60b01b161717600855565b3461033b5760006020366003190112610be8576004356116e8816104a3565b6116f0612122565b6001600160a01b037f0000000000000000000000000000000000000000000000000000000000000000811691839190833b1561175e5760249083604051958694859363ca5eb5e160e01b85521660048401525af1801561062857611752575080f35b61175b90610759565b80f35b8280fd5b3461033b57600036600319011261033b57600554604080516001600160801b038316815263ffffffff608084901c8116602083015260a09390931c90921690820152606090f35b3461033b576103766114fc6117bd36610ca4565b939290926120a8565b9061040b91602081526117df60208201835160ff169052565b602082015160408201526117fc6040830151606083019015159052565b6060820151151560808201526080820151805160a08301526020015160c082015260a0820151805160e08301526020015161010082015260c082015161012082015260e082015190610100611860610160938461014085015261018084019061098c565b93015191601f198285030191015261098c565b3461033b57602036600319011261033b5761188c611ea7565b50600435600052600a602052610376604060002061192360096118ad6107f9565b926118bc6111fa825460ff1690565b60018101546020850152600281015460ff818116151560408701526118e091611221565b6118ec6003820161086e565b60808501526118fd6005820161086e565b60a0850152600781015460c0850152611918600882016108c6565b60e0850152016108c6565b610100820152604051918291826117c6565b3461033b57600036600319011261033b57600454604080516001600160801b038316815263ffffffff608084901c8116602083015260a09390931c90921690820152606090f35b3461033b57602036600319011261033b5763ffffffff60043561199e8161037a565b6119a6612122565b1663ffffffff196002541617600255600080f35b3461033b57602036600319011261033b576004356119d7816104a3565b6119df612122565b6001600160a01b0381161561033b5761ffff60035460a01c16611a03604051610739565b600880546001600160b01b0319169190911760109290921b62010000600160b01b0316919091179055005b3461033b57600036600319011261033b57602060405163fffff9be8152f35b3461033b57602036600319011261033b57600435611a6a816104a3565b611a72612122565b6001600160a01b0381161561033b576002805468010000000000000000600160e01b03191660409290921b68010000000000000000600160e01b0316919091179055005b3461033b57604036600319011261033b57610019600435611ad68161037a565b602435611ae281610c9a565b611aea612122565b15611af6573090612273565b600090612273565b3461033b57611b0c366104b4565b50505092909150303303611c3e57611b46611b41611b3b611b2d8686612901565b356001600160f81b03191690565b60f81c90565b612928565b611b4f81611e13565b60028103611bb0575061066783611ba4611b9f611b8d7ff06876e31533a89db5d097a19a00a4457f569ce0e87c4ff14f204ec04f59d05c9787613039565b91906000526009602052604060002090565b612bbf565b604051938493846121f2565b80611bbc600192611e13565b03611c0d5761066783611ba4611c08611bf67ff06876e31533a89db5d097a19a00a4457f569ce0e87c4ff14f204ec04f59d05c9787612eb7565b9190600052600a602052604060002090565b612a65565b6106677f5fa5ca9e9e00aa864db74fad0ea402428388eb93f02d992b72ca6b675b52f60593604051938493846121f2565b60405162461bcd60e51b81526020600482015260126024820152712932b9b2b93b32b2103337b91039b2b6331760711b6044820152606490fd5b3461033b57602036600319011261033b57600435611c95816104a3565b611c9d612122565b6001600160a01b039081168015611ceb57600080546001600160a01b03198116831782559092167f8be0079c531659141344cd1fd0a4f28419497f9722a3daafe3b4186f6b6457e08380a380f35b604051631e4fbdf760e01b815260006004820152602490fd5b3461033b57611d12366103d2565b611d1a612122565b6001600160801b036004549163ffffffff60a01b9060a01b169316906001600160401b0360c01b16179063ffffffff60801b9060801b161717600455600080f35b611d6436611450565b90611d70939293611deb565b50611d7a83611e13565b821561033b57604093610d5993611f84565b3461033b57606036600319011261033b576020611da836610465565b63ffffffff8135611db88161037a565b166000526001825260406000205482604051920135148152f35b60405190611ddf82610739565b60006020838281520152565b60405190611df88261076c565b8160008152600060208201526040611e0e611dd2565b910152565b60031115611e1d57565b634e487b7160e01b600052602160045260246000fd5b9081602091031261033b575190565b6040513d6000823e3d90fd5b15611e5557565b60405162461bcd60e51b81526020600482015260156024820152744e6f20746f6b656e7320746f20776974686472617760581b6044820152606490fd5b9081602091031261033b575161040b81610c9a565b6040519061012082018281106001600160401b0382111761075457604052606061010083600081526000602082015260006040820152600083820152611eeb611dd2565b6080820152611ef8611dd2565b60a0820152600060c08201528260e08201520152565b90604051918281549182825260209260208301916000526020600020936000905b828210611f4557505050610826925003836107d8565b855484526001958601958895509381019390910190611f2f565b60405190611f6c82610787565b60006060838281528260208201528260408201520152565b9391611f8e611f5f565b50611f9885611e13565b841561033b57611fa781611e13565b806120575750611fe06004549163ffffffff6001600160801b03841693611fcd88611e13565b6001880361204e5760801c165b95612557565b9361200d611ff68284611ff16126f7565b612711565b94858761200860025463ffffffff1690565b61282e565b61203f6020825192015192612032612023610828565b6001600160801b039096168652565b63ffffffff166020850152565b60408301526060820152929190565b60a01c16611fda565b80612063600192611e13565b0361208857611fe06005549163ffffffff6001600160801b03841693611fcd88611e13565b611fe06006549163ffffffff6001600160801b03841693611fcd88611e13565b93949291906120b5611f5f565b506120bf85611e13565b841561033b576120d690611fda8385611ff16126f7565b946120ec63ffffffff918688846002541661282e565b9060208251920151926001600160801b036040519561210a87610787565b16855216602084015260408301526060820152929190565b6000546001600160a01b0316330361213657565b60405163118cdaa760e01b8152336004820152602490fd5b63ffffffff1680600052600160205260406000205490811561216e575090565b6024906040519063f6ff4fb760e01b82526004820152fd5b6001600160401b0381160361033b57565b6001600160401b036040809263ffffffff81356121b38161037a565b1685526020810135602086015201356121cb81612186565b16910152565b908060209392818452848401376000828201840152601f01601f1916010190565b8061220360809261040b9694612197565b81606082015201916121d1565b60208183031261033b578035906001600160401b03821161033b570181601f8201121561033b5780359061224382610b06565b9261225160405194856107d8565b8284526020838301011161033b57816000926020809301838601378301015290565b63ffffffff1660008181526001602090815260409182902084905581519283528201929092527f238399d427b947898edb290f5ff0f9109849b1c3ba196a42e35f00c50a54b98b9190a1565b919082604091031261033b576040516122d781610739565b6020808294805184520151910152565b9060808282031261033b576123219060408051936123048561076c565b80518552602081015161231681612186565b6020860152016122bf565b604082015290565b906020909392936040835263ffffffff8151166040840152818101516060840152608061237d612367604084015160a08488015260e087019061098c565b6060840151868203603f190160a088015261098c565b910151151560c08401526001600160a01b03909416910152565b6124006080949261241c96946123ab611deb565b5060206123b88651612c45565b950191825180612485575b506123cd8561214e565b92511515926123e96123dd610835565b63ffffffff9097168752565b602086015260408501526060840152151585830152565b6040518095819482936302637a4560e41b845260048401612329565b03917f00000000000000000000000000000000000000000000000000000000000000006001600160a01b03165af19081156106285760009161245c575090565b61040b915060803d60801161247e575b61247681836107d8565b8101906122e7565b503d61246c565b61248e90612c67565b386123c3565b6001600160401b0381116107545760051b60200190565b604090604051916124bb83610739565b60018352829160005b602080821015612513578351602092916124dd826107a2565b60008252600081830152600086830152606060008184015260006080840152600060a084015260c08301528288010152016124c4565b505091925050565b634e487b7160e01b600052603260045260246000fd5b80511561253e5760200190565b61251b565b805182101561253e5760209160051b010190565b61040b916125636124ab565b9161256d81611e13565b6001810361267e57506125b861261661258f60025463ffffffff9060201c1690565b926125c66008549160405194859163051007e560e01b6020840152602483019190602083019252565b03601f1981018552846107d8565b6125e36125d1610842565b600181529463ffffffff166020860152565b60006040850152426001600160401b0316606085015261ffff8116608085015260101c6001600160a01b031660a0840152565b60c082015261262482612531565b5261262e81612531565b505b60035460a01c61ffff169061267361264661084f565b60038152926000602085018190526040850152426001600160401b0316606085015261ffff166080840152565b3060a0830152612d80565b8061268a600292611e13565b14612696575b50612630565b6125b86126d86126af60025463ffffffff9060201c1690565b926125c6600754916040519485916302ca70c960e01b6020840152602483019190602083019252565b60c08201526126e682612531565b526126f081612531565b5038612690565b604051600360f01b60208201526002815261040b81610739565b61ffff9060038261272183612e20565b16036127f8576040519360208501936001600160801b03199060801b16845263ffffffff60e01b9060e01b1660308501526014845261275f84610739565b60038261276b83612e20565b16036127f85760018261277e86516131e4565b16019182116127f35761040b926024926127e460405196846127aa89965180926020808a019101610969565b600160f81b60209187019182015260f09390931b6001600160f01b0319166021840152600560f81b60238401525192839086840190610969565b010360048101845201826107d8565b612b2a565b90612804602492612e20565b604051633a51740d60e01b815291166004820152fd5b9060408282031261033b5761040b916122bf565b61287f61289a93929461283f611dd2565b506128498361214e565b93604096879561286887519661285e886107bd565b63ffffffff168752565b602086015285850152606084015215156080830152565b815180938192631bb8518b60e31b8352309060048401612329565b03817f00000000000000000000000000000000000000000000000000000000000000006001600160a01b03165afa918215610628576000926128db57505090565b61040b9250803d106128fa575b6128f281836107d8565b81019061281a565b503d6128e8565b901561253e5790565b906021101561253e5760210190565b906022101561253e5760220190565b60ff1661040b81611e13565b81811061293f575050565b60008155600101612934565b9190601f811161295a57505050565b610826926000526020600020906020601f840160051c83019310612986575b601f0160051c0190612934565b9091508190612979565b91909182516001600160401b038111610754576129b7816129b1845461088c565b8461294b565b602080601f83116001146129fa575081906129eb9394956000926129ef575b50508160011b916000199060031b1c19161790565b9055565b0151905038806129d6565b90601f19831695612a1085600052602060002090565b926000905b888210612a4d57505083600195969710612a34575b505050811b019055565b015160001960f88460031b161c19169055388080612a2a565b80600185968294968601518155019501930190612a15565b600961010061082693612a8c612a7c825160ff1690565b855460ff191660ff909116178555565b60208101516001850155612adc60028501612abf612aad6040850151151590565b829060ff801983541691151516179055565b60608301511515815461ff00191690151560081b61ff0016179055565b60808101518051600386015560200151600485015560a08101518051600586015560200151600685015560c08101516007850155612b2160e082015160088601612990565b01519101612990565b634e487b7160e01b600052601160045260246000fd5b8151916001600160401b03831161075457680100000000000000008311610754578154838355808410612ba1575b5060208091019160005260206000209060005b848110612b8f575050505050565b83518382015592810192600101612b81565b612bb990836000528460206000209182019101612934565b38612b6e565b600961010061082693612bd6612a7c825160ff1690565b60208101516001850155612bf760028501612abf612aad6040850151151590565b60808101518051600386015560200151600485015560a08101518051600586015560200151600685015560c08101516007850155612c3c60e082015160088601612990565b01519101612b40565b803403612c4f5790565b6040516304fb820960e51b8152346004820152602490fd5b60405163393f876560e21b81526001600160a01b037f00000000000000000000000000000000000000000000000000000000000000008116926020929091908381600481885afa90811561062857600091612d4a575b5016928315612d385760009160405190848201926323b872dd60e01b84523360248401526044830152606482015260648152612cf8816107bd565b519082855af115611e42576000513d612d2f5750803b155b612d175750565b60249060405190635274afe760e01b82526004820152fd5b60011415612d10565b6040516329b99a9560e11b8152600490fd5b90508381813d8311612d79575b612d6181836107d8565b8101031261033b5751612d73816104a3565b38612cbd565b503d612d57565b919091612d8d81516131e4565b604051600160f01b60208201819052602282015260f09190911b6001600160f01b031916602482015260068152612dc381610739565b916000925b8251841015612df057612de8600191612de18686612543565b51906132f0565b930192612dc8565b92509290508163ffffffff612e0c602084015163ffffffff1690565b16612e1657505090565b61040b92506130fb565b6002815110612e30576002015190565b60405162461bcd60e51b8152602060048201526014602482015273746f55696e7431365f6f75744f66426f756e647360601b6044820152606490fd5b9060211161033b5760010190602090565b909291928360c31161033b57831161033b5760c3019160c2190190565b359060208110612ea8575090565b6000199060200360031b1b1690565b919091612fa8612fa0612ec8611ea7565b94612ee3612edc611b3b611b2d8488612901565b60ff168752565b80612ef7612ef18287612e6c565b90612e9a565b6020880190815294612f896001600160f81b0319612f18611b2d858561290a565b16151560408a01908152612f4b612f42612f35611b2d8787612919565b6001600160f81b03191690565b151560608c0152565b60808a016023840135815152602060438501359151015260a08a016063840135815152602060838501359151015260a383013560c08b015251151590565b15612fb357612f96610b21565b60e0890152612e7d565b810190612210565b610100840152519190565b612fbb610e06565b612f96565b602090818184031261033b578035906001600160401b03821161033b57019180601f8401121561033b578235612ff581612494565b9361300360405195866107d8565b818552838086019260051b82010192831161033b578301905b82821061302a575050505090565b8135815290830190830161301c565b919091612fa86130f361304a611ea7565b9461305e612edc611b3b611b2d8488612901565b8061306c612ef18287612e6c565b60208801908152946130976001600160f81b031961308d611b2d858561290a565b16151560408a0152565b6130b36130aa612f35611b2d8585612919565b151560608a0152565b608088016023820135815152602060438301359151015260a088016063820135815152602060838301359151015260a381013560c0890152612f96610e06565b810190612fc0565b604761040b9161314f936131d68151916131bd6020820151916040810151151560608201519061ffff6080840151169260a0600180821b03910151169460206040519c8d8b83829d51948593019101610969565b600160f81b6020918b0191820152600160f01b602182015260f898891b6001600160f81b031916602382015260e09190911b6001600160e01b0319166024820152961b602887015260c01b6001600160c01b031916602986015260f01b6001600160f01b0319166031850152565b60601b6bffffffffffffffffffffffff19166033830152565b0360278101845201826107d8565b61ffff908181116131f3571690565b604490604051906306dfcc6560e41b8252601060048301526024820152fd5b602090613229600b96949382815194859201610969565b600160f81b910190815260f091821b6001600160f01b03199081166001830152600160f01b60038301529390911b909216600583015260e01b6001600160e01b03191660078201520190565b602090613290601f9897959396949682815194859201610969565b94151560f81b940193845260c01b6001600160c01b031916600184015260f01b6001600160f01b031916600983015260601b6bffffffffffffffffffffffff1916600b8201528151916132eb90839085840190602001610969565b010190565b61ffff8251169160c0810192835151602381018091116127f35761040b9361333861331d61339e936131e4565b602086015163ffffffff169060405195869460208601613212565b039261334c601f19948581018552846107d8565b604081015115159561336860608301516001600160401b031690565b9161338c60a061337d608084015161ffff1690565b9201516001600160a01b031690565b91519260405198899660208801613275565b039081018352826107d856fea26469706673582212209147f4df1dd1aefe80bd79f858a0c0711a3bee391d94c8cb76313eb271e1d2d664736f6c63430008160033",
  "devdoc": {
    "details": "Inherits from OAppRead for cross-chain messaging and Ownable for access controlDefault configuration for ETH origin chain and ARB target chain.",
    "errors": {
      "InsufficientFee(uint256,uint256)": [
        {
          "params": {
            "provided": "The provided fee amount",
            "required": "The required fee amount"
          }
        }
      ],
      "OwnableInvalidOwner(address)": [
        {
          "details": "The owner is not a valid owner account. (eg. `address(0)`)"
        }
      ],
      "OwnableUnauthorizedAccount(address)": [
        {
          "details": "The caller account is not authorized to perform an operation."
        }
      ],
      "SafeCastOverflowedUintDowncast(uint8,uint256)": [
        {
          "details": "Value doesn't fit in an uint of `bits` size."
        }
      ],
      "SafeERC20FailedOperation(address)": [
        {
          "details": "An operation with an ERC-20 token failed."
        }
      ]
    },
    "events": {
      "ArbitraryMessageReceived((uint32,bytes32,uint64),bytes)": {
        "params": {
          "message": "The received message data",
          "origin": "Origin information of the message"
        }
      }
    },
    "kind": "dev",
    "methods": {
      "_calldataReadLzReceive((uint32,bytes32,uint64),bytes32,bytes,address,bytes)": {
        "details": "This function can only be called by the contract itself through this._calldataReadLzReceive().      It's used as a bridge to convert memory parameters to calldata when needed.",
        "params": {
          "_executor": "The executor address for the message.",
          "_extraData": "Additional data passed with the message.",
          "_guid": "The unique identifier for the received message.",
          "_message": "The encoded message data that needs to be processed.",
          "_origin": "The origin information containing the source Endpoint ID."
        }
      },
      "allowInitializePath((uint32,bytes32,uint64))": {
        "details": "This indicates to the endpoint that the OApp has enabled msgs for this particular path to be received.This defaults to assuming if a peer has been set, its initialized. Can be overridden by the OApp if there is other logic to determine this.",
        "params": {
          "origin": "The origin information containing the source endpoint and sender address."
        },
        "returns": {
          "_0": "Whether the path has been initialized."
        }
      },
      "constructor": {
        "params": {
          "_delegate": "Address of the delegate",
          "_endpoint": "Address of the LayerZero endpoint"
        }
      },
      "isComposeMsgSender((uint32,bytes32,uint64),bytes,address)": {
        "details": "_origin The origin information containing the source endpoint and sender address.  - srcEid: The source chain endpoint ID.  - sender: The sender address on the src chain.  - nonce: The nonce of the message._message The lzReceive payload.Applications can optionally choose to implement separate composeMsg senders that are NOT the bridging layer.The default sender IS the OAppReceiver implementer.",
        "params": {
          "_sender": "The sender address."
        },
        "returns": {
          "_0": "isSender Is a valid sender."
        }
      },
      "lzReceive((uint32,bytes32,uint64),bytes32,bytes,address,bytes)": {
        "details": "Entry point for receiving messages or packets from the endpoint.Entry point for receiving msg/packet from the LayerZero endpoint.",
        "params": {
          "_executor": "The address of the executor for the received message.",
          "_extraData": "Additional arbitrary data provided by the corresponding executor.",
          "_guid": "The unique identifier for the received LayerZero message.",
          "_message": "The payload of the received message.",
          "_origin": "The origin information containing the source endpoint and sender address.  - srcEid: The source chain endpoint ID.  - sender: The sender address on the src chain.  - nonce: The nonce of the message."
        }
      },
      "nextNonce(uint32,bytes32)": {
        "details": "_srcEid The source endpoint ID._sender The sender address.The path nonce starts from 1. If 0 is returned it means that there is NO nonce ordered enforcement.Is required by the off-chain executor to determine the OApp expects msg execution is ordered.This is also enforced by the OApp.By default this is NOT enabled. ie. nextNonce is hardcoded to return 0.",
        "returns": {
          "nonce": "The next nonce."
        }
      },
      "oAppVersion()": {
        "returns": {
          "receiverVersion": "The version of the OAppReceiver.sol implementation.",
          "senderVersion": "The version of the OAppSender.sol implementation."
        }
      },
      "owner()": {
        "details": "Returns the address of the current owner."
      },
      "quote(uint8,uint256,uint32,uint128,bool)": {
        "params": {
          "calldataSize": "Size of calldata",
          "gasLimit": "Gas limit for the transaction",
          "id": "Verification ID",
          "payInLzToken": "Whether to pay in LayerZero tokens",
          "verifyType": "Type of verification"
        },
        "returns": {
          "_0": "QuoteResult Result containing gas and fee information"
        }
      },
      "quoteAuto(uint8,uint256,uint8,bool)": {
        "params": {
          "id": "Verification ID",
          "mode": "Whether to use optimistic mode",
          "payInLzToken": "Whether to pay in LayerZero tokens",
          "verifyType": "Type of verification"
        },
        "returns": {
          "_0": "QuoteResult Result containing gas and fee information"
        }
      },
      "readBytesCompressedAuto(uint8,uint256,uint8,bool)": {
        "params": {
          "id": "Verification ID",
          "mode": "Whether to use conservative/default/optimistic mode",
          "payInLzToken": "Whether to pay in LayerZero tokens",
          "verifyType": "Type of verification"
        },
        "returns": {
          "_0": "MessagingReceipt Receipt of the message transaction"
        }
      },
      "readBytesCompressedManual(uint8,uint256,uint32,uint128,bool)": {
        "params": {
          "calldataSize": "Size of calldata",
          "gasLimit": "Gas limit for the transaction",
          "id": "Verification ID",
          "payInLzToken": "Whether to pay in LayerZero tokens",
          "verifyType": "Type of verification"
        },
        "returns": {
          "_0": "MessagingReceipt Receipt of the message transaction"
        }
      },
      "renounceOwnership()": {
        "details": "Leaves the contract without owner. It will not be possible to call `onlyOwner` functions. Can only be called by the current owner. NOTE: Renouncing ownership will leave the contract without an owner, thereby disabling any functionality that is only available to the owner."
      },
      "setDelegate(address)": {
        "details": "Only the owner/admin of the OApp can call this function.Provides the ability for a delegate to set configs, on behalf of the OApp, directly on the Endpoint contract.",
        "params": {
          "_delegate": "The address of the delegate to be set."
        }
      },
      "setPeer(uint32,bytes32)": {
        "details": "Only the owner/admin of the OApp can call this function.Indicates that the peer is trusted to send LayerZero messages to this OApp.Set this to bytes32(0) to remove the peer address.Peer is a bytes32 to accommodate non-evm chains.",
        "params": {
          "_eid": "The endpoint ID.",
          "_peer": "The address of the peer to be associated with the corresponding endpoint."
        }
      },
      "transferOwnership(address)": {
        "details": "Transfers ownership of the contract to a new account (`newOwner`). Can only be called by the current owner."
      }
    },
    "stateVariables": {
      "BLOCK_CONFIRMATIONS": {
        "details": "Read block confirmations required"
      },
      "CONSERVATIVE_CONFIG": {
        "details": "Decoding gas - 714k(Fields)"
      },
      "DEFAULT_CONFIG": {
        "details": "Decoding gas - 1.4m(Fields)"
      },
      "OPTIMISTIC_CONFIG": {
        "details": "Decoding gas - 2.5m(Fields)"
      },
      "READ_FROM_ENDPOINT_ID": {
        "details": "Target chain - Reading from."
      },
      "READ_TO_ENDPOINT_ID": {
        "details": "Origin chain - Reading to."
      }
    },
    "title": "PallasVerificationReceiever",
    "version": 1
  },
  "userdoc": {
    "errors": {
      "InsufficientFee(uint256,uint256)": [
        {
          "notice": "Error thrown when the provided fee is insufficient"
        }
      ]
    },
    "events": {
      "ArbitraryMessageReceived((uint32,bytes32,uint64),bytes)": {
        "notice": "Emitted when an arbitrary message is received.         All _lzReceive() calls apart from read responses."
      },
      "ReadReceived((uint32,bytes32,uint64),bytes)": {
        "notice": "Emitted when a valid read is received."
      }
    },
    "kind": "user",
    "methods": {
      "CHAIN_CONFIG_VF()": {
        "notice": "Read configuration for vf and vm"
      },
      "CONSERVATIVE_CONFIG()": {
        "notice": "Conservative gas limit for transactions (100 Chars/20 Fields)"
      },
      "DEFAULT_CONFIG()": {
        "notice": "Default gas limit for transactions (250 Chars/50 Fields)"
      },
      "MAINNET_PREFIX()": {
        "notice": "Signature prefix for mainnet network mode"
      },
      "OPTIMISTIC_CONFIG()": {
        "notice": "Optimistic gas limit for transactions (500 Chars/100 Fields)"
      },
      "TESTNET_PREFIX()": {
        "notice": "Signature prefix for testnet network mode"
      },
      "_calldataReadLzReceive((uint32,bytes32,uint64),bytes32,bytes,address,bytes)": {
        "notice": "A helper function to convert memory data to calldata for _readLzReceive."
      },
      "allowInitializePath((uint32,bytes32,uint64))": {
        "notice": "Checks if the path initialization is allowed based on the provided origin."
      },
      "constructor": {
        "notice": "Constructor for PallasVerificationReceiever"
      },
      "endpoint()": {
        "notice": "Retrieves the LayerZero endpoint associated with the OApp."
      },
      "getVFIdToData(uint256)": {
        "notice": "To get Verify Fields mapping value"
      },
      "getVMIdToData(uint256)": {
        "notice": "To get Verify Message mapping value"
      },
      "isComposeMsgSender((uint32,bytes32,uint64),bytes,address)": {
        "notice": "Indicates whether an address is an approved composeMsg sender to the Endpoint."
      },
      "nextNonce(uint32,bytes32)": {
        "notice": "Retrieves the next nonce for a given source endpoint and sender address."
      },
      "oAppVersion()": {
        "notice": "Retrieves the OApp version information."
      },
      "peers(uint32)": {
        "notice": "Retrieves the peer (OApp) associated with a corresponding endpoint."
      },
      "quote(uint8,uint256,uint32,uint128,bool)": {
        "notice": "Gets quote for transaction with manual parameters"
      },
      "quoteAuto(uint8,uint256,uint8,bool)": {
        "notice": "Gets automatic quote for transaction"
      },
      "readBytesCompressedAuto(uint8,uint256,uint8,bool)": {
        "notice": "Reads compressed bytes with automatic parameters"
      },
      "readBytesCompressedManual(uint8,uint256,uint32,uint128,bool)": {
        "notice": "Reads compressed bytes with manual parameters"
      },
      "setDelegate(address)": {
        "notice": "Sets the delegate address for the OApp."
      },
      "setPeer(uint32,bytes32)": {
        "notice": "Sets the peer address (OApp instance) for a corresponding endpoint."
      },
      "updateVerifyFieldsContract(address)": {
        "notice": "=========================================================================== ADMIN STORAGE UPDATE FUNCTIONS ============================================ ==========================================================================="
      },
      "vfIdToData(uint256)": {
        "notice": "Mapping of verification field IDs to their compressed data"
      },
      "vmIdToData(uint256)": {
        "notice": "Mapping of verification message IDs to their compressed data"
      }
    },
    "notice": "Contract for receiving and processing cross-chain verification data",
    "version": 1
  },
  "storageLayout": {
    "storage": [
      {
        "astId": 3951,
        "contract": "contracts/bridge/PallasVerificationReceiever.sol:PallasVerificationReceiever",
        "label": "_owner",
        "offset": 0,
        "slot": "0",
        "type": "t_address"
      },
      {
        "astId": 2953,
        "contract": "contracts/bridge/PallasVerificationReceiever.sol:PallasVerificationReceiever",
        "label": "peers",
        "offset": 0,
        "slot": "1",
        "type": "t_mapping(t_uint32,t_bytes32)"
      },
      {
        "astId": 7343,
        "contract": "contracts/bridge/PallasVerificationReceiever.sol:PallasVerificationReceiever",
        "label": "READ_CHANNEL_ID",
        "offset": 0,
        "slot": "2",
        "type": "t_uint32"
      },
      {
        "astId": 7347,
        "contract": "contracts/bridge/PallasVerificationReceiever.sol:PallasVerificationReceiever",
        "label": "READ_FROM_ENDPOINT_ID",
        "offset": 4,
        "slot": "2",
        "type": "t_uint32"
      },
      {
        "astId": 7350,
        "contract": "contracts/bridge/PallasVerificationReceiever.sol:PallasVerificationReceiever",
        "label": "READ_FROM_ENDPOINT_ADDRESS",
        "offset": 8,
        "slot": "2",
        "type": "t_address"
      },
      {
        "astId": 7354,
        "contract": "contracts/bridge/PallasVerificationReceiever.sol:PallasVerificationReceiever",
        "label": "READ_TO_ENDPOINT_ID",
        "offset": 28,
        "slot": "2",
        "type": "t_uint32"
      },
      {
        "astId": 7357,
        "contract": "contracts/bridge/PallasVerificationReceiever.sol:PallasVerificationReceiever",
        "label": "READ_TO_ENDPOINT_ADDRESS",
        "offset": 0,
        "slot": "3",
        "type": "t_address"
      },
      {
        "astId": 7361,
        "contract": "contracts/bridge/PallasVerificationReceiever.sol:PallasVerificationReceiever",
        "label": "BLOCK_CONFIRMATIONS",
        "offset": 20,
        "slot": "3",
        "type": "t_uint16"
      },
      {
        "astId": 7370,
        "contract": "contracts/bridge/PallasVerificationReceiever.sol:PallasVerificationReceiever",
        "label": "CONSERVATIVE_CONFIG",
        "offset": 0,
        "slot": "4",
        "type": "t_struct(ModeConfig)7305_storage"
      },
      {
        "astId": 7379,
        "contract": "contracts/bridge/PallasVerificationReceiever.sol:PallasVerificationReceiever",
        "label": "DEFAULT_CONFIG",
        "offset": 0,
        "slot": "5",
        "type": "t_struct(ModeConfig)7305_storage"
      },
      {
        "astId": 7388,
        "contract": "contracts/bridge/PallasVerificationReceiever.sol:PallasVerificationReceiever",
        "label": "OPTIMISTIC_CONFIG",
        "offset": 0,
        "slot": "6",
        "type": "t_struct(ModeConfig)7305_storage"
      },
      {
        "astId": 7399,
        "contract": "contracts/bridge/PallasVerificationReceiever.sol:PallasVerificationReceiever",
        "label": "CHAIN_CONFIG_VF",
        "offset": 0,
        "slot": "7",
        "type": "t_struct(ChainConfig)7287_storage"
      },
      {
        "astId": 7409,
        "contract": "contracts/bridge/PallasVerificationReceiever.sol:PallasVerificationReceiever",
        "label": "CHAIN_CONFIG_VM",
        "offset": 0,
        "slot": "8",
        "type": "t_struct(ChainConfig)7287_storage"
      },
      {
        "astId": 7415,
        "contract": "contracts/bridge/PallasVerificationReceiever.sol:PallasVerificationReceiever",
        "label": "vfIdToData",
        "offset": 0,
        "slot": "9",
        "type": "t_mapping(t_uint256,t_struct(VerifyFieldsStateCompressed)7184_storage)"
      },
      {
        "astId": 7421,
        "contract": "contracts/bridge/PallasVerificationReceiever.sol:PallasVerificationReceiever",
        "label": "vmIdToData",
        "offset": 0,
        "slot": "10",
        "type": "t_mapping(t_uint256,t_struct(VerifyMessageStateCompressed)7262_storage)"
      }
    ],
    "types": {
      "t_address": {
        "encoding": "inplace",
        "label": "address",
        "numberOfBytes": "20"
      },
      "t_array(t_uint256)dyn_storage": {
        "base": "t_uint256",
        "encoding": "dynamic_array",
        "label": "uint256[]",
        "numberOfBytes": "32"
      },
      "t_bool": {
        "encoding": "inplace",
        "label": "bool",
        "numberOfBytes": "1"
      },
      "t_bytes32": {
        "encoding": "inplace",
        "label": "bytes32",
        "numberOfBytes": "32"
      },
      "t_mapping(t_uint256,t_struct(VerifyFieldsStateCompressed)7184_storage)": {
        "encoding": "mapping",
        "key": "t_uint256",
        "label": "mapping(uint256 => struct VerifyFieldsStateCompressed)",
        "numberOfBytes": "32",
        "value": "t_struct(VerifyFieldsStateCompressed)7184_storage"
      },
      "t_mapping(t_uint256,t_struct(VerifyMessageStateCompressed)7262_storage)": {
        "encoding": "mapping",
        "key": "t_uint256",
        "label": "mapping(uint256 => struct VerifyMessageStateCompressed)",
        "numberOfBytes": "32",
        "value": "t_struct(VerifyMessageStateCompressed)7262_storage"
      },
      "t_mapping(t_uint32,t_bytes32)": {
        "encoding": "mapping",
        "key": "t_uint32",
        "label": "mapping(uint32 => bytes32)",
        "numberOfBytes": "32",
        "value": "t_bytes32"
      },
      "t_string_storage": {
        "encoding": "bytes",
        "label": "string",
        "numberOfBytes": "32"
      },
      "t_struct(ChainConfig)7287_storage": {
        "encoding": "inplace",
        "label": "struct ChainConfig",
        "members": [
          {
            "astId": 7284,
            "contract": "contracts/bridge/PallasVerificationReceiever.sol:PallasVerificationReceiever",
            "label": "confirmations",
            "offset": 0,
            "slot": "0",
            "type": "t_uint16"
          },
          {
            "astId": 7286,
            "contract": "contracts/bridge/PallasVerificationReceiever.sol:PallasVerificationReceiever",
            "label": "toReadFrom",
            "offset": 2,
            "slot": "0",
            "type": "t_address"
          }
        ],
        "numberOfBytes": "32"
      },
      "t_struct(ModeConfig)7305_storage": {
        "encoding": "inplace",
        "label": "struct ModeConfig",
        "members": [
          {
            "astId": 7300,
            "contract": "contracts/bridge/PallasVerificationReceiever.sol:PallasVerificationReceiever",
            "label": "gasLimit",
            "offset": 0,
            "slot": "0",
            "type": "t_uint128"
          },
          {
            "astId": 7302,
            "contract": "contracts/bridge/PallasVerificationReceiever.sol:PallasVerificationReceiever",
            "label": "messageSize",
            "offset": 16,
            "slot": "0",
            "type": "t_uint32"
          },
          {
            "astId": 7304,
            "contract": "contracts/bridge/PallasVerificationReceiever.sol:PallasVerificationReceiever",
            "label": "fieldsSize",
            "offset": 20,
            "slot": "0",
            "type": "t_uint32"
          }
        ],
        "numberOfBytes": "32"
      },
      "t_struct(Point)7084_storage": {
        "encoding": "inplace",
        "label": "struct Point",
        "members": [
          {
            "astId": 7081,
            "contract": "contracts/bridge/PallasVerificationReceiever.sol:PallasVerificationReceiever",
            "label": "x",
            "offset": 0,
            "slot": "0",
            "type": "t_uint256"
          },
          {
            "astId": 7083,
            "contract": "contracts/bridge/PallasVerificationReceiever.sol:PallasVerificationReceiever",
            "label": "y",
            "offset": 0,
            "slot": "1",
            "type": "t_uint256"
          }
        ],
        "numberOfBytes": "64"
      },
      "t_struct(Signature)7096_storage": {
        "encoding": "inplace",
        "label": "struct Signature",
        "members": [
          {
            "astId": 7093,
            "contract": "contracts/bridge/PallasVerificationReceiever.sol:PallasVerificationReceiever",
            "label": "r",
            "offset": 0,
            "slot": "0",
            "type": "t_uint256"
          },
          {
            "astId": 7095,
            "contract": "contracts/bridge/PallasVerificationReceiever.sol:PallasVerificationReceiever",
            "label": "s",
            "offset": 0,
            "slot": "1",
            "type": "t_uint256"
          }
        ],
        "numberOfBytes": "64"
      },
      "t_struct(VerifyFieldsStateCompressed)7184_storage": {
        "encoding": "inplace",
        "label": "struct VerifyFieldsStateCompressed",
        "members": [
          {
            "astId": 7156,
            "contract": "contracts/bridge/PallasVerificationReceiever.sol:PallasVerificationReceiever",
            "label": "verifyType",
            "offset": 0,
            "slot": "0",
            "type": "t_uint8"
          },
          {
            "astId": 7159,
            "contract": "contracts/bridge/PallasVerificationReceiever.sol:PallasVerificationReceiever",
            "label": "vfId",
            "offset": 0,
            "slot": "1",
            "type": "t_uint256"
          },
          {
            "astId": 7162,
            "contract": "contracts/bridge/PallasVerificationReceiever.sol:PallasVerificationReceiever",
            "label": "mainnet",
            "offset": 0,
            "slot": "2",
            "type": "t_bool"
          },
          {
            "astId": 7165,
            "contract": "contracts/bridge/PallasVerificationReceiever.sol:PallasVerificationReceiever",
            "label": "isValid",
            "offset": 1,
            "slot": "2",
            "type": "t_bool"
          },
          {
            "astId": 7169,
            "contract": "contracts/bridge/PallasVerificationReceiever.sol:PallasVerificationReceiever",
            "label": "publicKey",
            "offset": 0,
            "slot": "3",
            "type": "t_struct(Point)7084_storage"
          },
          {
            "astId": 7173,
            "contract": "contracts/bridge/PallasVerificationReceiever.sol:PallasVerificationReceiever",
            "label": "signature",
            "offset": 0,
            "slot": "5",
            "type": "t_struct(Signature)7096_storage"
          },
          {
            "astId": 7176,
            "contract": "contracts/bridge/PallasVerificationReceiever.sol:PallasVerificationReceiever",
            "label": "messageHash",
            "offset": 0,
            "slot": "7",
            "type": "t_uint256"
          },
          {
            "astId": 7179,
            "contract": "contracts/bridge/PallasVerificationReceiever.sol:PallasVerificationReceiever",
            "label": "prefix",
            "offset": 0,
            "slot": "8",
            "type": "t_string_storage"
          },
          {
            "astId": 7183,
            "contract": "contracts/bridge/PallasVerificationReceiever.sol:PallasVerificationReceiever",
            "label": "fields",
            "offset": 0,
            "slot": "9",
            "type": "t_array(t_uint256)dyn_storage"
          }
        ],
        "numberOfBytes": "320"
      },
      "t_struct(VerifyMessageStateCompressed)7262_storage": {
        "encoding": "inplace",
        "label": "struct VerifyMessageStateCompressed",
        "members": [
          {
            "astId": 7235,
            "contract": "contracts/bridge/PallasVerificationReceiever.sol:PallasVerificationReceiever",
            "label": "verifyType",
            "offset": 0,
            "slot": "0",
            "type": "t_uint8"
          },
          {
            "astId": 7238,
            "contract": "contracts/bridge/PallasVerificationReceiever.sol:PallasVerificationReceiever",
            "label": "vmId",
            "offset": 0,
            "slot": "1",
            "type": "t_uint256"
          },
          {
            "astId": 7241,
            "contract": "contracts/bridge/PallasVerificationReceiever.sol:PallasVerificationReceiever",
            "label": "mainnet",
            "offset": 0,
            "slot": "2",
            "type": "t_bool"
          },
          {
            "astId": 7244,
            "contract": "contracts/bridge/PallasVerificationReceiever.sol:PallasVerificationReceiever",
            "label": "isValid",
            "offset": 1,
            "slot": "2",
            "type": "t_bool"
          },
          {
            "astId": 7248,
            "contract": "contracts/bridge/PallasVerificationReceiever.sol:PallasVerificationReceiever",
            "label": "publicKey",
            "offset": 0,
            "slot": "3",
            "type": "t_struct(Point)7084_storage"
          },
          {
            "astId": 7252,
            "contract": "contracts/bridge/PallasVerificationReceiever.sol:PallasVerificationReceiever",
            "label": "signature",
            "offset": 0,
            "slot": "5",
            "type": "t_struct(Signature)7096_storage"
          },
          {
            "astId": 7255,
            "contract": "contracts/bridge/PallasVerificationReceiever.sol:PallasVerificationReceiever",
            "label": "messageHash",
            "offset": 0,
            "slot": "7",
            "type": "t_uint256"
          },
          {
            "astId": 7258,
            "contract": "contracts/bridge/PallasVerificationReceiever.sol:PallasVerificationReceiever",
            "label": "prefix",
            "offset": 0,
            "slot": "8",
            "type": "t_string_storage"
          },
          {
            "astId": 7261,
            "contract": "contracts/bridge/PallasVerificationReceiever.sol:PallasVerificationReceiever",
            "label": "message",
            "offset": 0,
            "slot": "9",
            "type": "t_string_storage"
          }
        ],
        "numberOfBytes": "320"
      },
      "t_uint128": {
        "encoding": "inplace",
        "label": "uint128",
        "numberOfBytes": "16"
      },
      "t_uint16": {
        "encoding": "inplace",
        "label": "uint16",
        "numberOfBytes": "2"
      },
      "t_uint256": {
        "encoding": "inplace",
        "label": "uint256",
        "numberOfBytes": "32"
      },
      "t_uint32": {
        "encoding": "inplace",
        "label": "uint32",
        "numberOfBytes": "4"
      },
      "t_uint8": {
        "encoding": "inplace",
        "label": "uint8",
        "numberOfBytes": "1"
      }
    }
  }
}