{
  "address": "0xB352B0dE8AF1e27a0fc927c1aD38BdB1bc4FCf40",
  "abi": [
    {
      "inputs": [],
      "name": "InvalidPublicKey",
      "type": "error"
    },
    {
      "inputs": [],
      "name": "StepSkipped",
      "type": "error"
    },
    {
      "inputs": [],
      "name": "BEQ",
      "outputs": [
        {
          "internalType": "uint256",
          "name": "",
          "type": "uint256"
        }
      ],
      "stateMutability": "view",
      "type": "function"
    },
    {
      "inputs": [],
      "name": "DEFAULT_STRING_LENGTH",
      "outputs": [
        {
          "internalType": "uint256",
          "name": "",
          "type": "uint256"
        }
      ],
      "stateMutability": "view",
      "type": "function"
    },
    {
      "inputs": [],
      "name": "FIELD_MODULUS",
      "outputs": [
        {
          "internalType": "uint256",
          "name": "",
          "type": "uint256"
        }
      ],
      "stateMutability": "view",
      "type": "function"
    },
    {
      "inputs": [],
      "name": "G_X",
      "outputs": [
        {
          "internalType": "uint256",
          "name": "",
          "type": "uint256"
        }
      ],
      "stateMutability": "view",
      "type": "function"
    },
    {
      "inputs": [],
      "name": "G_Y",
      "outputs": [
        {
          "internalType": "uint256",
          "name": "",
          "type": "uint256"
        }
      ],
      "stateMutability": "view",
      "type": "function"
    },
    {
      "inputs": [],
      "name": "MAINNET_SIGNATURE_PREFIX",
      "outputs": [
        {
          "internalType": "string",
          "name": "",
          "type": "string"
        }
      ],
      "stateMutability": "view",
      "type": "function"
    },
    {
      "inputs": [],
      "name": "SCALAR_MODULUS",
      "outputs": [
        {
          "internalType": "uint256",
          "name": "",
          "type": "uint256"
        }
      ],
      "stateMutability": "view",
      "type": "function"
    },
    {
      "inputs": [],
      "name": "SIGNATURE_PREFIX",
      "outputs": [
        {
          "internalType": "string",
          "name": "",
          "type": "string"
        }
      ],
      "stateMutability": "view",
      "type": "function"
    },
    {
      "inputs": [
        {
          "internalType": "uint256",
          "name": "vmId",
          "type": "uint256"
        }
      ],
      "name": "cleanupVMLifecycle",
      "outputs": [],
      "stateMutability": "nonpayable",
      "type": "function"
    },
    {
      "inputs": [
        {
          "internalType": "bytes",
          "name": "data",
          "type": "bytes"
        }
      ],
      "name": "decodeVMStateBytesCompressed",
      "outputs": [
        {
          "components": [
            {
              "internalType": "uint8",
              "name": "verifyType",
              "type": "uint8"
            },
            {
              "internalType": "uint256",
              "name": "vmId",
              "type": "uint256"
            },
            {
              "internalType": "bool",
              "name": "mainnet",
              "type": "bool"
            },
            {
              "internalType": "bool",
              "name": "isValid",
              "type": "bool"
            },
            {
              "components": [
                {
                  "internalType": "uint256",
                  "name": "x",
                  "type": "uint256"
                },
                {
                  "internalType": "uint256",
                  "name": "y",
                  "type": "uint256"
                }
              ],
              "internalType": "struct PallasTypes.Point",
              "name": "publicKey",
              "type": "tuple"
            },
            {
              "components": [
                {
                  "internalType": "uint256",
                  "name": "r",
                  "type": "uint256"
                },
                {
                  "internalType": "uint256",
                  "name": "s",
                  "type": "uint256"
                }
              ],
              "internalType": "struct PallasTypes.Signature",
              "name": "signature",
              "type": "tuple"
            },
            {
              "internalType": "uint256",
              "name": "messageHash",
              "type": "uint256"
            },
            {
              "internalType": "string",
              "name": "prefix",
              "type": "string"
            },
            {
              "internalType": "string",
              "name": "message",
              "type": "string"
            }
          ],
          "internalType": "struct PallasTypes.VerifyMessageStateCompressed",
          "name": "state",
          "type": "tuple"
        }
      ],
      "stateMutability": "pure",
      "type": "function"
    },
    {
      "inputs": [
        {
          "internalType": "uint256",
          "name": "vmId",
          "type": "uint256"
        }
      ],
      "name": "getVMState",
      "outputs": [
        {
          "components": [
            {
              "internalType": "bool",
              "name": "init",
              "type": "bool"
            },
            {
              "internalType": "bool",
              "name": "mainnet",
              "type": "bool"
            },
            {
              "internalType": "bool",
              "name": "isValid",
              "type": "bool"
            },
            {
              "internalType": "uint8",
              "name": "atStep",
              "type": "uint8"
            },
            {
              "components": [
                {
                  "internalType": "uint256",
                  "name": "x",
                  "type": "uint256"
                },
                {
                  "internalType": "uint256",
                  "name": "y",
                  "type": "uint256"
                }
              ],
              "internalType": "struct PallasTypes.Point",
              "name": "publicKey",
              "type": "tuple"
            },
            {
              "components": [
                {
                  "internalType": "uint256",
                  "name": "r",
                  "type": "uint256"
                },
                {
                  "internalType": "uint256",
                  "name": "s",
                  "type": "uint256"
                }
              ],
              "internalType": "struct PallasTypes.Signature",
              "name": "signature",
              "type": "tuple"
            },
            {
              "internalType": "uint256",
              "name": "messageHash",
              "type": "uint256"
            },
            {
              "components": [
                {
                  "internalType": "uint256",
                  "name": "x",
                  "type": "uint256"
                },
                {
                  "internalType": "uint256",
                  "name": "y",
                  "type": "uint256"
                }
              ],
              "internalType": "struct PallasTypes.Point",
              "name": "pkInGroup",
              "type": "tuple"
            },
            {
              "components": [
                {
                  "internalType": "uint256",
                  "name": "x",
                  "type": "uint256"
                },
                {
                  "internalType": "uint256",
                  "name": "y",
                  "type": "uint256"
                }
              ],
              "internalType": "struct PallasTypes.Point",
              "name": "sG",
              "type": "tuple"
            },
            {
              "components": [
                {
                  "internalType": "uint256",
                  "name": "x",
                  "type": "uint256"
                },
                {
                  "internalType": "uint256",
                  "name": "y",
                  "type": "uint256"
                }
              ],
              "internalType": "struct PallasTypes.Point",
              "name": "ePk",
              "type": "tuple"
            },
            {
              "components": [
                {
                  "internalType": "uint256",
                  "name": "x",
                  "type": "uint256"
                },
                {
                  "internalType": "uint256",
                  "name": "y",
                  "type": "uint256"
                }
              ],
              "internalType": "struct PallasTypes.Point",
              "name": "R",
              "type": "tuple"
            },
            {
              "internalType": "string",
              "name": "message",
              "type": "string"
            },
            {
              "internalType": "string",
              "name": "prefix",
              "type": "string"
            }
          ],
          "internalType": "struct PallasTypes.VerifyMessageState",
          "name": "state",
          "type": "tuple"
        }
      ],
      "stateMutability": "view",
      "type": "function"
    },
    {
      "inputs": [
        {
          "internalType": "uint256",
          "name": "vmId",
          "type": "uint256"
        }
      ],
      "name": "getVMStateBytesCompressed",
      "outputs": [
        {
          "internalType": "bytes",
          "name": "",
          "type": "bytes"
        }
      ],
      "stateMutability": "view",
      "type": "function"
    },
    {
      "inputs": [
        {
          "components": [
            {
              "internalType": "uint256",
              "name": "x",
              "type": "uint256"
            },
            {
              "internalType": "uint256",
              "name": "y",
              "type": "uint256"
            }
          ],
          "internalType": "struct PallasTypes.Point",
          "name": "point",
          "type": "tuple"
        }
      ],
      "name": "isValidPublicKey",
      "outputs": [
        {
          "internalType": "bool",
          "name": "",
          "type": "bool"
        }
      ],
      "stateMutability": "pure",
      "type": "function"
    },
    {
      "inputs": [
        {
          "components": [
            {
              "internalType": "bool",
              "name": "init",
              "type": "bool"
            },
            {
              "internalType": "bool",
              "name": "mainnet",
              "type": "bool"
            },
            {
              "internalType": "bool",
              "name": "isValid",
              "type": "bool"
            },
            {
              "internalType": "uint8",
              "name": "atStep",
              "type": "uint8"
            },
            {
              "components": [
                {
                  "internalType": "uint256",
                  "name": "x",
                  "type": "uint256"
                },
                {
                  "internalType": "uint256",
                  "name": "y",
                  "type": "uint256"
                }
              ],
              "internalType": "struct PallasTypes.Point",
              "name": "publicKey",
              "type": "tuple"
            },
            {
              "components": [
                {
                  "internalType": "uint256",
                  "name": "r",
                  "type": "uint256"
                },
                {
                  "internalType": "uint256",
                  "name": "s",
                  "type": "uint256"
                }
              ],
              "internalType": "struct PallasTypes.Signature",
              "name": "signature",
              "type": "tuple"
            },
            {
              "internalType": "uint256",
              "name": "messageHash",
              "type": "uint256"
            },
            {
              "components": [
                {
                  "internalType": "uint256",
                  "name": "x",
                  "type": "uint256"
                },
                {
                  "internalType": "uint256",
                  "name": "y",
                  "type": "uint256"
                }
              ],
              "internalType": "struct PallasTypes.Point",
              "name": "pkInGroup",
              "type": "tuple"
            },
            {
              "components": [
                {
                  "internalType": "uint256",
                  "name": "x",
                  "type": "uint256"
                },
                {
                  "internalType": "uint256",
                  "name": "y",
                  "type": "uint256"
                }
              ],
              "internalType": "struct PallasTypes.Point",
              "name": "sG",
              "type": "tuple"
            },
            {
              "components": [
                {
                  "internalType": "uint256",
                  "name": "x",
                  "type": "uint256"
                },
                {
                  "internalType": "uint256",
                  "name": "y",
                  "type": "uint256"
                }
              ],
              "internalType": "struct PallasTypes.Point",
              "name": "ePk",
              "type": "tuple"
            },
            {
              "components": [
                {
                  "internalType": "uint256",
                  "name": "x",
                  "type": "uint256"
                },
                {
                  "internalType": "uint256",
                  "name": "y",
                  "type": "uint256"
                }
              ],
              "internalType": "struct PallasTypes.Point",
              "name": "R",
              "type": "tuple"
            },
            {
              "internalType": "string",
              "name": "message",
              "type": "string"
            },
            {
              "internalType": "string",
              "name": "prefix",
              "type": "string"
            }
          ],
          "internalType": "struct PallasTypes.VerifyMessageState",
          "name": "state",
          "type": "tuple"
        },
        {
          "internalType": "uint256",
          "name": "vmId",
          "type": "uint256"
        }
      ],
      "name": "packVerifyMessageStateCompressed",
      "outputs": [
        {
          "internalType": "bytes",
          "name": "",
          "type": "bytes"
        }
      ],
      "stateMutability": "pure",
      "type": "function"
    },
    {
      "inputs": [
        {
          "internalType": "uint256[]",
          "name": "input",
          "type": "uint256[]"
        }
      ],
      "name": "poseidonLegacyHash",
      "outputs": [
        {
          "internalType": "uint256",
          "name": "",
          "type": "uint256"
        }
      ],
      "stateMutability": "view",
      "type": "function"
    },
    {
      "inputs": [
        {
          "internalType": "string",
          "name": "prefix",
          "type": "string"
        },
        {
          "internalType": "uint256[]",
          "name": "input",
          "type": "uint256[]"
        }
      ],
      "name": "poseidonLegacyHashWithPrefix",
      "outputs": [
        {
          "internalType": "uint256",
          "name": "",
          "type": "uint256"
        }
      ],
      "stateMutability": "view",
      "type": "function"
    },
    {
      "inputs": [
        {
          "components": [
            {
              "internalType": "uint256",
              "name": "x",
              "type": "uint256"
            },
            {
              "internalType": "uint256",
              "name": "y",
              "type": "uint256"
            }
          ],
          "internalType": "struct PallasTypes.Point",
          "name": "publicKey",
          "type": "tuple"
        },
        {
          "components": [
            {
              "internalType": "uint256",
              "name": "r",
              "type": "uint256"
            },
            {
              "internalType": "uint256",
              "name": "s",
              "type": "uint256"
            }
          ],
          "internalType": "struct PallasTypes.Signature",
          "name": "signature",
          "type": "tuple"
        },
        {
          "internalType": "string",
          "name": "message",
          "type": "string"
        },
        {
          "internalType": "bool",
          "name": "network",
          "type": "bool"
        }
      ],
      "name": "step_0_VM_assignValues",
      "outputs": [
        {
          "internalType": "uint256",
          "name": "",
          "type": "uint256"
        }
      ],
      "stateMutability": "nonpayable",
      "type": "function"
    },
    {
      "inputs": [
        {
          "internalType": "uint256",
          "name": "vmId",
          "type": "uint256"
        }
      ],
      "name": "step_1_VM",
      "outputs": [],
      "stateMutability": "nonpayable",
      "type": "function"
    },
    {
      "inputs": [
        {
          "internalType": "uint256",
          "name": "vmId",
          "type": "uint256"
        }
      ],
      "name": "step_2_VM",
      "outputs": [],
      "stateMutability": "nonpayable",
      "type": "function"
    },
    {
      "inputs": [
        {
          "internalType": "uint256",
          "name": "vmId",
          "type": "uint256"
        }
      ],
      "name": "step_3_VM",
      "outputs": [],
      "stateMutability": "nonpayable",
      "type": "function"
    },
    {
      "inputs": [
        {
          "internalType": "uint256",
          "name": "vmId",
          "type": "uint256"
        }
      ],
      "name": "step_4_VM",
      "outputs": [],
      "stateMutability": "nonpayable",
      "type": "function"
    },
    {
      "inputs": [
        {
          "internalType": "uint256",
          "name": "vmId",
          "type": "uint256"
        }
      ],
      "name": "step_5_VM",
      "outputs": [],
      "stateMutability": "nonpayable",
      "type": "function"
    },
    {
      "inputs": [
        {
          "internalType": "uint256",
          "name": "vmId",
          "type": "uint256"
        }
      ],
      "name": "step_6_VM",
      "outputs": [
        {
          "internalType": "bool",
          "name": "",
          "type": "bool"
        }
      ],
      "stateMutability": "nonpayable",
      "type": "function"
    },
    {
      "inputs": [],
      "name": "vmCounter",
      "outputs": [
        {
          "internalType": "uint256",
          "name": "",
          "type": "uint256"
        }
      ],
      "stateMutability": "view",
      "type": "function"
    },
    {
      "inputs": [
        {
          "internalType": "uint256",
          "name": "",
          "type": "uint256"
        }
      ],
      "name": "vmLifeCycle",
      "outputs": [
        {
          "internalType": "bool",
          "name": "init",
          "type": "bool"
        },
        {
          "internalType": "bool",
          "name": "mainnet",
          "type": "bool"
        },
        {
          "internalType": "bool",
          "name": "isValid",
          "type": "bool"
        },
        {
          "internalType": "uint8",
          "name": "atStep",
          "type": "uint8"
        },
        {
          "components": [
            {
              "internalType": "uint256",
              "name": "x",
              "type": "uint256"
            },
            {
              "internalType": "uint256",
              "name": "y",
              "type": "uint256"
            }
          ],
          "internalType": "struct PallasTypes.Point",
          "name": "publicKey",
          "type": "tuple"
        },
        {
          "components": [
            {
              "internalType": "uint256",
              "name": "r",
              "type": "uint256"
            },
            {
              "internalType": "uint256",
              "name": "s",
              "type": "uint256"
            }
          ],
          "internalType": "struct PallasTypes.Signature",
          "name": "signature",
          "type": "tuple"
        },
        {
          "internalType": "uint256",
          "name": "messageHash",
          "type": "uint256"
        },
        {
          "components": [
            {
              "internalType": "uint256",
              "name": "x",
              "type": "uint256"
            },
            {
              "internalType": "uint256",
              "name": "y",
              "type": "uint256"
            }
          ],
          "internalType": "struct PallasTypes.Point",
          "name": "pkInGroup",
          "type": "tuple"
        },
        {
          "components": [
            {
              "internalType": "uint256",
              "name": "x",
              "type": "uint256"
            },
            {
              "internalType": "uint256",
              "name": "y",
              "type": "uint256"
            }
          ],
          "internalType": "struct PallasTypes.Point",
          "name": "sG",
          "type": "tuple"
        },
        {
          "components": [
            {
              "internalType": "uint256",
              "name": "x",
              "type": "uint256"
            },
            {
              "internalType": "uint256",
              "name": "y",
              "type": "uint256"
            }
          ],
          "internalType": "struct PallasTypes.Point",
          "name": "ePk",
          "type": "tuple"
        },
        {
          "components": [
            {
              "internalType": "uint256",
              "name": "x",
              "type": "uint256"
            },
            {
              "internalType": "uint256",
              "name": "y",
              "type": "uint256"
            }
          ],
          "internalType": "struct PallasTypes.Point",
          "name": "R",
          "type": "tuple"
        },
        {
          "internalType": "string",
          "name": "message",
          "type": "string"
        },
        {
          "internalType": "string",
          "name": "prefix",
          "type": "string"
        }
      ],
      "stateMutability": "view",
      "type": "function"
    },
    {
      "inputs": [
        {
          "internalType": "uint256",
          "name": "",
          "type": "uint256"
        }
      ],
      "name": "vmLifeCycleBytesCompressed",
      "outputs": [
        {
          "internalType": "bytes",
          "name": "",
          "type": "bytes"
        }
      ],
      "stateMutability": "view",
      "type": "function"
    },
    {
      "inputs": [
        {
          "internalType": "uint256",
          "name": "",
          "type": "uint256"
        }
      ],
      "name": "vmLifeCycleCreator",
      "outputs": [
        {
          "internalType": "address",
          "name": "",
          "type": "address"
        }
      ],
      "stateMutability": "view",
      "type": "function"
    }
  ],
  "transactionHash": "0x36289ca26b082d8d254e6dde55f89b72d03baac16b807e87dfa8ad20470b8d66",
  "args": [],
  "numDeployments": 1,
  "solcInputHash": "20c9985a174c6978dfcb458f40069725",
  "bytecode": "0x604060808152346200332957620000156200332e565b6200001f6200332e565b907f0bc7bd43470f271edd561175959cad06bb21d64fa314a778873762e6ffb4a5ca82526020917f21a33ba4ebd3dff40b654a6b390cb28f9eca5e028831b94079ea43b97f1bfffc838201527f3185adbdc93210522ae0cc0eab26cc7077a14f1263f1714cdce8e4cd293208b18482015281526200009c6200332e565b7f164cd45138652570ac0442e35cde96aa4fb24c86983bb1b2b1620758f5caf31881527f25de1627ec1a5754e9c0db6969b0cc16a08f57225c1ffd9db833abc204f5612b838201527f1f690f9372cca3a645304689367c2e0c823241c68dd5eaeb67be04f351680a4f8482015282820152620001176200332e565b7f06c364440aa3b6cf17615d7114a87bdd15917ee6c2d6ec8451336adead4ab5a781527f250b797d72cab6bdcf47520851e6d9e069927ff59ca0038c81fab3c8f2ec2261838201527f2557460f3563ba3aa6c4a826ba8639377129acef2f2589b1302dcc8b61eea7bf848201528382015260009081905b60039081831015620001d257908482519260005b838110620001bc575060019350019301910190916200018e565b84518782015591909301928691600101620001a2565b855186908690610c8081016001600160401b0381118282101762003313578352620001fc6200332e565b7f02f9dadabbc991f8d691dc62fea5f8ae37b76efe5169a9b0cc92a4820ccb537881527f1783bec6c3570a733c43953d9584b229a9737a3629f1d0dab0b78665580b88e5838201527f28c01df6666b04196cf02af0390756bba8ecfe80106e3f56377ead8957340c7b848201528152620002756200332e565b7f0cd102badb124ebe9c7358494bd7fa35928b7c0954bbf25f00f95df0a63992b481527f020f1731eef7b4190a40dacf31757cc39bd16733e18d5f624741757bfd7a51d5838201527f1e3339ede4ca0304d2fdadf84d097d0bdd370e0aeaa49d68db98fde08cdbdf528482015282820152620002f06200332e565b7f0d6f067838fca70a3a82d8f7ed72345b0d88d592e2ed2aa03fdeb28371bdad6081527f3fb917be23bf82c2ba391b81704ee5a7aae2a9a7e8a75d4b5678f03b729c756f838201527f33c766ac8e43ad4f0001fe8aa2165058d1015a3bed8b2cf657a0d21951ec699584820152838201526200036b6200332e565b7f1e6870fd342783ff94d630d4ae7abe1b7c989b533d123fe0290a2fe9afa8b58d81527f31841af166bee119a8ebe61e079a2b962ce00c71e02694847a61118c8634e0da838201527f1ce218cbe1cd33d3bd3802dde999d1fb33b3806b1b222d1f488e655616f6d5af848201526060820152620003e76200332e565b7f333772c14246fd782e07478d2cc23cdd5d9d66103377c00176a8f536b6c1d1aa81527f0425e6a47af44e68352c070ac03c82e97758630e9376e9207e85bcf2bc461920838201527f38433342a831c71d9604a5f04595308a32f0ed60c76f3d8fb75fb677a32b6eb6848201526080820152620004636200332e565b7f04c793fc2c4db319f2565881f0eefbdede66ef0b0d314f953e8730631054321181527f2a5c181209489bf91a447f187729b2f144ceb9b825ef2f8ad979128f18ad105e838201527f36e4781a629fcfe8489dbf28f6a7526a7fe5640fbec1b3cf5f155ae760f26f418482015260a0820152620004df6200332e565b7f2348bed14360723e8c643fd1f022ce150fb349e2a5db5f62fbc09705713e554781527f11b371d0f4a9d4dc688ee6b43d5ed6258a137aa16ac4e190f4aea30516d13d5a838201527f298d37b85dec2b7d548877975b2de198327e9734bdcdca9a1bd2657121fb8ebb8482015260c08201526200055b6200332e565b7f2ae8b1483af5eb5c754ad6a519b214ce67c772ad7537dbd60717492056421f4381527f1e3050261e80372fa5830b0a6f119cf3c4e4ddaa8f585310a0c488d850d653bf838201527f1f28f3d4242e8dfe21201b6f28daacb1d9159cbdbe2a26e618ca349999de7c5d8482015260e0820152620005d76200332e565b7f1d469a8eeeb675773d9e9164c94aeda355681fcacd87bd25fb688d816dd5023481527f38d6ecd101eb008bc3d94b9f840c68f5c911877303f084f0f72a04d51fae0ead838201527f3b65f8d1d63bd4c211e9658aeb909873d074df4bf8bb8b11cdbcb92e172657cd84820152610100820152620006546200332e565b7f34cf76f034657b1fa7c83b6c8aaa9e65466aaee1cad433d7c09a5c7361c8910981527f2542cd1460d869400226d2d6c126a4812404cc7e007a73859dddc6fc2e19c1e8838201527f28c7560c1ec842179268bcf3813f4f4be05fa6e600bbfb6daed5b862358205ed84820152610120820152620006d16200332e565b7f255b3e6138146a37f70cb9f8f4ce44ba6d7eb08f0994a537ea6ff6b84152583f81527f34b63eb174ec334dae32417f5cc272f2171665e32d323f6a58ba7690ac57cc28838201527f35e0c2b608547ab67f05ecd61f1aeaeac0139fffe734fa073c33ea087d1e1fbb848201526101408201526200074e6200332e565b7f38115c9f35b03dcc031a30d9bc4b1ff93830d9e1edded022e05d843a2f0347e681527f03494b3eea9bd5533003b3e59a455f353b5ece83e79134033a22580a05685b5c838201527f293d819ac238e2333c064a816955cfcbf3d557a817785c513349eb03c721b76e84820152610160820152620007cb6200332e565b7f29bcabb23f2d09b8475b951f5ba2bb338dae11940b0557718b63c45e6c1ec9ca81527e652648b3548800e4c4e9a5be98e2027130f83c2b57e3f1eea2ee0429453090838201527f12877b538224e235d91d77661f9e0c73d3d67367852769268b6e7933e753911884820152610180820152620008476200332e565b7f093c115bb0f28811a7a11c041ef5847f4ec11dd787457ffe9716b2a996da3d6c81527f2434aedf500ce5314cce60f7d540710160341ed7fe8faab2fcd2deef68731829838201527f1291b3e81b69a2d7eb1b566e4e22a28b2a8aae13dc9b6fd50c14ca47897a905f848201526101a0820152620008c46200332e565b7f222013376f6283e3e633f6969ea07641d57e7dee499ac3e881ee4e14d142449981527f09067a146776a12055d073e0328ae1d483a4c00d89cc10d80bdc2d6755f4d889838201527f3a40dc2198f80b690ff1679bb0538c75b3d718a0283920ce8d39f12d9cfa27ab848201526101c0820152620009416200332e565b7f1576532889a8dd5dd7bc42845f08f63bacfb53d4081838742b154be87b00b93481527f3db4ef72bd8bd58506ed2e6770520bfc133b53d095eaf820e4668528931de9ec838201527f2d1e1687b8b93e398a98051141607f1692c706d702670019ebdd2b72247ad9ba848201526101e0820152620009be6200332e565b7f323e9676d56bd57906a49e8f64296b16a5ab57587c1092bd4f3d9fbc48d5bdaa81527f1b8309450bc4500389bfc6f736af1478d3a1eac53dce59473d7e682ed25758af838201527f3beb7f00630155ff39e5314babba6ab06ffdaa786b7add69e9895791b9055bb78482015261020082015262000a3b6200332e565b7f1fe58500a9141b81fdacedf9fc56a9db74ad3e4b5acf78bf8f01cd70440f3cad81527f32aad1dc3e6fe3bcac504e2c1fd1b1d5d67ccc4453494595ab54eddc3675b968838201527f07a380f595acad204ea45f406877315ed504c78044c18c0f867c0e50ca1721cd8482015261022082015262000ab86200332e565b7f09fa52f7acb1009c154114747411f2ef0948b5a7b2ba9fc747bffb9766ba858981527f2835d3ee4caa0b46514ec41c9f2196f5fdae2c68c47710a41f6efd68869c376b838201527f14e2d97c0abb872d8efe475c9ccbdc09694767919087a59d46b5a226ca29b93a8482015261024082015262000b356200332e565b7f0722e1113d90324e06820ff86dc1280d743f2a8288a18b30b26af75f1333e08681527f20b78ceb6e0df0292c43cde8d53df0bc20c7c7fc6a66fdbd3f54d8dce2ba8396838201527f32e168964ba20a863fd84d46b44bc82ffc5174ead595f35253bc972b8cd0ee318482015261026082015262000bb26200332e565b7f2e61cd35d9d990f9f871e90b768909d88311739321d846f7af89494f891ba4d381527f2ded160893ae32d074fb0700ec1398918543bf95101c0144604cc4d4539f8b5c838201527f16577ae073be82232c35882854222749e9d8e0a8fbbf7081ee9c2b42a9f309e58482015261028082015262000c2f6200332e565b7f187e88ba7cccdf4057e20ff2e0177574d8c34711913feebd5dab4f895af005d381527f0a60ab41c11f95fa605f57c10f8d34b800b7d8159e5f7b00a3b2cb5f2091a846838201527f2914e18873f7378eb210b493ce3991ac9808a9e9a4d41e104cfc2bacab72b617848201526102a082015262000cac6200332e565b7f06c6f01aa8ca190a0e95409a41738505c13006cc008534ab8a68ebf9b71d74e181527f28ef788c2018eae12c06b82f190cc97e580c3d3c563085068d0b62d67bc609af838201527f26d45b1aa0e972886118fa56b56e41df4d3acc761685f5b261ffd058201c6af6848201526102c082015262000d296200332e565b7f39ec87e4a95dd94e6930d71722c6d1d7df329f2937cd1548345d26b767d678ba81527f10bff0fcc663269e3376f4005d194dfd0febc1b302e807ae7947653a910fb6ed838201527f2c58d0a4646e33ac9f633d2c88a7acdb7a192c23aa13f1133b178fadeff93bd9848201526102e082015262000da66200332e565b7f255a12f7505a81b7387bbcaf2b69a02983fcb1f0760a5a354af777ac6f1b25b481527f1ede0f41c98e5a789c12e1849ea83292fa0e2ec9e3c60904d40ea129aa9bfc8d838201527f37d6ddb158b07eee159e3f531df614299da753ea227e2ffbf270bc20b0513bab8482015261030082015262000e236200332e565b7f28f7cfe6a0b76b75b8dbeac43e039ba1ea126addb90ed9ca841c1167c2b8e6d481527f32e1ed2dbf09026b619f089e041d0628354276387e530b05aeeb8652f0cb20c5838201527f3db54eb1d8c5286111eb66c02c2aee886c891f2d66e635b985ee915a0eff5dd98482015261032082015262000ea06200332e565b7f025c178b222bb3251458eacd3593f1871620ce561025d033c4c2a1354e92b2e281527f2611a94466f9ef6e985fa72c1d2d2fbf053cbeb6be85d1c64ef357c2d459db54838201527f2454b42934012ff778e8e1e5c7c819fee2af51fadb592ea7d025c25ec92be9808482015261034082015262000f1d6200332e565b7f3f40092e86c6ff92369760f1ae2aecda1306844488f157271e7fb4674783d63381527f1660a3b2599d67d031089bf39dfb32d5f7c1f39cc762c14624d4113cb6e6fe9f838201527f0530f1045ffb5c20a9f194c64d1bffba49dfb7544174935a437a32185ba5e9d28482015261036082015262000f9a6200332e565b7f24be84fe06b6e3df8f63f25bf8132b99980122bbb57b427dcb9cce48e9c2732481527f05172209042ea906e3ff5ea1e856c643cbf689e363bfcd74ec5a196360fa6d88838201527f3cd4ad01b5ceccb9cb65ac8ff460cc9a4a01c3dcdcdf95eb1366d31623d1c61184820152610380820152620010176200332e565b7f14e9c2ef46ae06997baf594795cf642ee9755aab50c69b43a729f3519eaac4c781527f33ca75b3f0eee249ba79ab97f811adf195a71f59794633f5976ba10ebcceb3f9838201527f10e52756ef1e9062ab5ab4a3e7abe29f01ca703e109dc57666f4bdf1c401977a848201526103a0820152620010946200332e565b7f152dc28205bb989f84fbe0a3e64b252ca66794ecac42c4680a2d65b275c522f881527f28ee5dddc9ef49eca187049b82679c92a9be74e888b098c3f256cebf8eb6a467838201527f371a00f9d51e93a5a03d0b7f462b723cffd9bf007efd4b5726d13b8be1f48264848201526103c0820152620011116200332e565b7f2eb7e75c62ba1d7f03cb784e41a6afedbcda222163972fc21085b1b564c36a8981527f2a779ccb539ab7a8516cad9b7b6bef5d835d73a49f9256f6bdd23430aa4b6176838201527f351ca417a677264f4df829ffa55bff4e3490dea36dc225b90f62a7fa9781637c848201526103e08201526200118e6200332e565b7f109ad285b5b20bdeb94efe97b1c8afc0b84f7b41d9242e9e58ddc3c5093c81ae81527f082af6fd0d473630b2b8a2bc9c3c6c495b69affe456cf7cee11714c3c3c31d16838201527f1461c7f090cbda8b253994a27c72a0b29928db3aefa4e4a48cb2025d611f8af8848201526104008201526200120b6200332e565b7f0b2ee969275d2a3afb5c3ac05146da01ee3589add766f22be6331bbed92cd0f181527f1d11a5a41cfdc731ecd7e52e3fc0ea81b2fe0bbb2801d148f75a05502903007a838201527f21936b3709c9ddd228f6e0aaa224955afd9b411fd260f42ad988d2920d39261e84820152610420820152620012886200332e565b7f062320c5546cfe6217f6db99664de360cf6f96e8ecc28b4dba45254f1508ed9281527f0de133d07af9bdfdbb3ddfaab9107d2c9e03c630bf11a159216b2fa0fe0e667d838201527f35617094e3c1ecdb07317eadd26c63985d01bc36025637191c79dc65359ccbe184820152610440820152620013056200332e565b7f39042151c20fa2181845f35474d65b806d93f63448d5a5567478d0610442a97e81527f2f88df0574fd97b6d0bcebb78ecf6769bd59aeed451f7d730a8d5481db79d680838201527f25fe91a88205b5698bd33087cd536326fc4ac8ec977ec807edc91cb72fe48a9f84820152610460820152620013826200332e565b7f1b1775ad9c2ba1f118ce3b216324aff9a8d6a16e75745787031a71e5e49ee88181527f1ca5356d21e15245f06da068e58121e48e7a9ab2b6b562fec7b9569d870d1306838201527f06af4c91a11c52a5f02f13d8fe5a54b47c1c2c18212b5dafbaae1c2bbdee124984820152610480820152620013ff6200332e565b7f0941789280992dab6bc83d32da898d379f261fc54806d67718c33ec0db836a4a81527f096d4deca9fd80930e56d62adf81e3fb15e9807041cbdbaba5033c878141211b838201527f35367b942f71e94c6699742642a6c6a2c14ad81e10a8c8bda2e8f6f45f3a1630848201526104a08201526200147c6200332e565b7f20337671bc9d81451d638bc5f2d10caed48756373e93c5bc5d74aee8a219218281527f3eb77d9c0afbd28c29159cbdaacb193c1b54282c4c6ab45ff23cfa21a60a6b33838201527f3f7a9145cafc9f7e623f0e8ffad7eba26cede885c92b0f045c8f8d2350441652848201526104c0820152620014f96200332e565b7f0a0b04b04775f033845870cf4d779d60dc8737800c3f9ff01bba6187ff9b6cb781527f059830cd83d371e5b9e629fa432d3f2456002bbe460926dbec347a8cbfa3f623838201527f1c7d70a41850b060aa600fb388961d6ec2914a44af5b27dcf0974e6620674486848201526104e0820152620015766200332e565b7f2fbdb6819b90002cfff42f87a37e1f7e804974280f792a3b09c3e6844ec64c4081527f1d419da8b49bd73f5f43a8edc44b16114ae57aa251bf34faf86b58c36df28ec8838201527f2fcd8a73ef6217c754f8b6ec6cac929d22b6ce02ff0f4a7897a92612ab01510584820152610500820152620015f36200332e565b7f39a250eb25a92ea23bf75c9a37f2674ac0a410ca09810533ac44ca6c34b07ca181527f285855ef5de9622818dbc87cccd092a98b4c7dab24a2c546b43ef85ee9c1d925838201527f2ef973b323eb9f2dacd5a60002149109669b88ff52e8714b69be770a8ddbaf9084820152610520820152620016706200332e565b7f11920f37c58326cfabcced87523d3cd90139c1a1195d0dad4d51bbdcc1cbb88c81527f31057f191bda3f1eb5b6046f0bb930dfc97b8ca505eaa4daa1f747d6f21e1752838201527f25154f7ac76edfc82196797946e293e8c8a7fb88fa583f929aad0fe50ea897f384820152610540820152620016ed6200332e565b7f17ace9f6367ac29273dbce8eccd375584c343adf14173d9b5a2573b5ff11057781527f2efb03fdba217d2601c209f6d3aa19c25822c2c4668b27748a6a584b25e488b8838201527f1bd0b43cf6ac7b6cd535a6c94e329ce6bc1d58d6ec3fc980d4df42944c639d09848201526105608201526200176a6200332e565b7f2bbadb54fd142142e5d9da726c6effc16e6add297776036a245dd4998df2a72a81527f30159ecc49fe867eb8adc027605f0480c079aa5a6183056d6cdbe5db827c86b9838201527f26e945e1ec402504a6ed02d41a30a4562c0c559743e089bbc72e8a29d2f9cfc884820152610580820152620017e76200332e565b7f060ac054a5db07d9c3b43e3baa677f8be1c659644c5bd9cea2202e4d5b258f4c81527f1e4ba404df70c4b25e94dc2f4506d1ce9aad21bfafd908b25dac884b545bd96d838201527f3ee4d554f56f3712029c9936bf7adbe897334592046b6442eb236159efedf7c1848201526105a0820152620018646200332e565b7f3f190b8ce44186a9a0be8c63cbd7f5a367cf64464b316b2a2770d117d11afea481527f2f27f767edf5209aaebd36d25477daca86e032bdd7e4c7bd2d054a00fb999fc7838201527f3e340445d8f274a2417ac07b2c83d6a4264e60af0e67193d47e043b0a82649c1848201526105c0820152620018e16200332e565b7f373a9dfa29c8a12b7aea71ef6ccfbf371e93df71aefbcfeb37513542d19dfd9b81527f2cf7fb4f8e34330256543c7be2b082e49c18591f6e1c3a5a6c523f2185d060a3838201527f1187d223845b0f888a340dff2cc6f50bac15f7520f8b42b9aeddd3f9e45b697e848201526105e08201526200195e6200332e565b7f13b37fdc3daa817b242c6975ee13c2a9b79595ddbc15bb52dad35f16aaed68fb81527f2b70dc6b83faaf01e662fe5f488e695fa9123bfbb82c00329b1e76c6b262a284838201527f205b55ea84e99f479a3a65ed581eeae8da778031843cc16070ffaf1638ddb55f84820152610600820152620019db6200332e565b7f198c04b22df46de4f139c4a6c4aa889fe140e9deb97ec1e5d83e36ac7429d5d481527f2e333c8d9b7786b891fcfe79ae56b4ea8bdab8e64f9bc5ce5bf32b48b20de75d838201527f0a47e570b4ea649089bba90bf61540edae5a8b037bf59110fbb5cb320d71595e8482015261062082015262001a586200332e565b7f1eb02ce09ed3c42604fa93fb09fac1e5de0b66a5678722308044dec1ac6c90d281527f11c879e6cc2001607e1729b822dcfaa9a4c10a25d354fb0220f4ab5e9e3dec64838201527f04b806f5fc40f15e663eac16ba02923d97a2aca5f0efea8e8955a3ebc328cfa18482015261064082015262001ad56200332e565b7f3c671c8185114e52c21f7b779d05b6e76033737fd91cca5366554eb1c4910d0a81527f33c5d496652b2dbdfd3281239d59ff1c1563814791b2afc1805ef9dcf20b49db838201527f26f047d6b5d2b3e74ad01e1635877fec3d2415c273cf9e078f3a035260a761ef8482015261066082015262001b526200332e565b7f17ae35d76c90b9906e2a8364786001e19ef5942f85db2eea7726c8325748115481527f2111fb41b79e1ed7b52ab074344555c1339f6dead74c81d02f2fe37dad97bccb838201527f354608988a63494d3d2e11d12f40981cee7e2e5e438e80bb2e976628f98a53b38482015261068082015262001bcf6200332e565b7f27c26d5998de1ed7dcad2c1d9406af2d0afc389443f7706e67ad5dab07b98a2581527f26e82b78ed77fa2c7ab0d9d86fe9b2b313c29ec0a20d31d99e7ceb88b4a61a89838201527f3c9f896389f9168cd521e81f4c4c6e24dbfb316a685ef8a4a59e7810bc1af909848201526106a082015262001c4c6200332e565b7efddd234b11d1b77ff3595b74c94a57a9b7ca4605c626a4e70aa1de721edbc281527f33f13cbaa0e9196a78dbd6c9d34827b74c749a37b337f5ffa2df7b8f0e3b6c21838201527f32060e681369e9d8ab9f49dc6978cd85292cf1c908b1bacdcd7585fa7f8363d1848201526106c082015262001cc86200332e565b7f39c41360d52142a4e304dcda3b1ab0d7eedce909e07462196c4f459c5edc974881527f2cb7647a82d0e70c9f9ef883157141fb657315bff86c274287181b816cbff535838201527f10aad98fc92ae62c7211437240dad844416d858f2b6ff9f85b8d2a8372d1c9c4848201526106e082015262001d456200332e565b7f39e3eecf71a7ae2934f557cf2af1ee809754caf22858816b84eac74a646e824681527f3f92e6654a83ebe985ddbab5e9af40c00283536cd0ac92c96e0fec7c22a2d24f838201527f1a4cef4f366fa80772b85b9484942bc3b579cd3a36a9ef25e7999b9a9d1f23c98482015261070082015262001dc26200332e565b7f2fe1d605af674260ae9e13cf71ee8f6a3bebf4e3ca4ed0ba394c695e9d252cab81527f145f74e0790888452e102444c8d28be2192d392c23c81a6935a6697b803d5f2d838201527f295d8c45443dbc0a49882de53c92a295b4f67cba2c49a945def3a9f71d53415d8482015261072082015262001e3f6200332e565b7f0f10617eb0f69195822e0518ad06efc45d33b14a68f93a9149abb0f89eb19e4381527f2d6cf48b81919824fb6cbbd325b14db6f4d29eed69b3b49cdd45b753aa32cb3e838201527f2c691a5519e9c0c89d496d6b60229bc852644573b45f0fb08b9a3bb8dd01cc6f8482015261074082015262001ebc6200332e565b7f3e50344adf9e70181e4f1df0b87dc829399c9ee2badb2e13c61728f79da7e69781527f16591f51a54464eeffe9c42af21e6c8cc2a42392121a1e6afdd438569e98d90f838201527f1947350278ed8b4ac29c88486db3259d8c0a1e5e4b81ef93ca6c9cea8c8f107a8482015261076082015262001f396200332e565b7f3d9e5c3252cc09dc78ef80a16f38150c7944e8fb27f2f29cd5cd3ae48b2b19b981527e39e7c187e0b64f15757e5ac90bf4729d6ad6628ea7b4a8644992e8640af67d838201527f328144c12fffacabff017f0726c86f42ecaad7435eff270f462743f0126efabe8482015261078082015262001fb56200332e565b7f289a1a58eb1dc10717fac769b508156d581d8b63aed8fe6902e08bcddf9e339581527f057bfbceaa7f9d5110feb295922ea73006a70b2553057ed6343724cac8bf4ea9838201527f25188b12757e81d8e10352d5a6b540a61737b057aa34afb88c56e6a17f1021e4848201526107a0820152620020326200332e565b7f1a6a14f5b7a8fa4ed50a60244fbba4bc5470e4cd4ca7a326d8ae8664bc19517e81527f06ed5244e5e6e55c987fe995cf281e6d873e8750d50f2813f13d6609528f0889838201527f3d405c061d987d6d24e705f8736185498f9454ee641ca25331735e3183b892b5848201526107c0820152620020af6200332e565b7f1cbe945e02625d9af40f5a2945a311fc95246ae07cce8c0777265fbc01facade81527f010e279901e0b4a08f590e5a44b6667b3e608bc7d2411e9190c6538a916ea298838201527f1ec2e81eba84f4527aaef43f2ea98d3edcf8f753c705a54b53841c264b1d8d5e848201526107e08201526200212c6200332e565b7f24bfa50b387752ab2b2abb064f9fa256657bea926afe83c236ad1a8f08d40d0381527f3019509b5d2ae404de984274aa3ef4867ec2046073bc6c3f3d1423ef91ee7be6838201527f3aac5a5d82686358c9d49b48b950400761924b3f8d0ecf938cd8be4e3f59584c84820152610800820152620021a96200332e565b7f06c7910f20bb41ee397c7ecaeb48a3df55e3c1fa4e68086fe2704d8ca5ba246281527f23c6d6d7e9778378aa9b5b0fd679f18c281e8bc4df7ea5c15506955ed1b8f105838201527f3fe91fe2197dd9fb61f1a1dfad1ca0a8164374878d697b210ebc2c3e3d4f8c2684820152610820820152620022266200332e565b7f3dd8b348f904a835260a6d03077aa57895e87e79c6b57a60959181e0c8d600a181527f03389707fb78a6cdd37640749bdf8eb4ca233398d0e5fd47a61ea4737aa64dde838201527f12346b6d34b5a3a2a5945bbc8f9687004496602632b129ac5e938052807eb80f84820152610840820152620022a36200332e565b7f1345203883e5d5e739a7535987694e281faf4c3dd24e110cfe9fd2db865ef59181527f2a0b1896101a5f912afd8b0a3b26453a4ece2360537544fbb902f32c578a98c1838201527f35e664add5f8be7fe49ca1b958176a15a7b96b0ea1c7c46f3555070530770cb084820152610860820152620023206200332e565b7f04f6d6fc27ec1c863e4f63092421ef0eaab82438835acb278a268f9988d3bda781527f3fa582246051ed9ff122e3d1ccc01c36a79cb211797867b47ab9ac8628912f37838201527f0fe3b2acef9da9e146d49c182b6b51836808cb27ce4594f07f40d04e087c7446848201526108808201526200239d6200332e565b7f28806266709d409c64e31001aa0e4bf7d775845ba6bd4fcec3efb72a8f9bd88e81527f05cc8707a4a8505891814596f0918350747afc2ac84e3f421e02926be36e2dd7838201527f1e8575b9c53ce2347a4db07ee9e9b5cac53f2255cc79ea0b32b350caa3046dd2848201526108a08201526200241a6200332e565b7f3cb47390e17ad0e1489a56807e8ecdc2564f6123cd031da3dd1fa0b9c3c5c37e81527f22279fb573b3cc7ab2f52e84360180614661e45d57b9b53c83527fb0e1fee6c7838201527f14c6656712d334cb9245b75ed79b7c330f97ccc1312e13de6a1bc875deb306ee848201526108c0820152620024976200332e565b7f15f2fab594fde918257402cbaf896da4bd82e9fa34617b53203c2b5e036fb75b81527f34ae1d4028bc2c096f1cbc30457473c606764eb076f46eec6f9f4f029afb0516838201527f073cc2b91f8be9ff4e994a104a7e887b48681399c6c0eab543f37119bb8b63db848201526108e0820152620025146200332e565b7f2b451514f63349198ff8e1555b1413e22d78c9e8ae80b61b275843237d233f8b81527f09db9d38907d7b840adbac31fb4b5e85cff8807b44da0e9e365a9658fb67a06a838201527f0e43d37ad5c30a44e58e2b356b5a4964e2587483685b67533e103b176bb3e9a984820152610900820152620025916200332e565b7f202fa18c51ed788fc2f00b12a9399ccbf246cb0cb3c966986637e294ece1b98b81527f178c3bf7adb7ebea4afec79ff0e8afbac04e5090623023dd324213788e4ef2d6838201527f2c31f1d03e598adf81656d57e50ce17e151aaea3fd980b976293cd57883b6a0c848201526109208201526200260e6200332e565b7f3b5f876430b4038659a8dc3f5b2b946bf5da61a81c618c767fe266e9a30e3f7b81527f32600ba257dd8f4cccadec6582f0b8ab700fa9d715607bc1635fab11b9452b11838201527f3f3cc094a5a94baa3d028faf91320e8d04c4f2f8b99d6c8334874da52f6a1aad848201526109408201526200268b6200332e565b7f2d6c849a7f36d203aad0923e9dc8a82f2e986c1e51d2d787610fd4b909967c7f81527f335e044574af4a51119f8c121b87684c543eefc05293202180676864689db542838201527f398d6da5df52be0f2582532176d01f444cd4a81750c2f0a8c38117bf364a84e784820152610960820152620027086200332e565b7f1507ba09ff6cb5067e070cd1c1f93334484514d910739e7562f254e9cd27815781527f1bd43fae5ae3036a5e48e388255cac2ba01d7d62e322514f22b9a9ecfa904f38838201527f156130ee4dafaf7b8cc089682c3228b6cea7e681171289cdc19c38fc50a0bd0d84820152610980820152620027856200332e565b7f3baeed3b1af88252ca21c63935d9ee7165738eeb6d30a9528945d7b63f01ca8f81527f347de61a008ed33bfa78e0d6cae521ff31604f274d9aa991c536d08aa272dec3838201527f3dc0a6d30124c35c02b53f10ec034e795b7a86af52f2c863fb14d93da10d3d3f848201526109a0820152620028026200332e565b7f2db23e4b00e9b862fa8c0a064980ebb3c28fce714b9d6f4b072d9eadcd56d5ed81527f3b74342838683ae2f113d0de90f2c8c38689ce79d2ba6736c0a0c11d9f199c66838201527f3ec307db36712062beb35cea94aa10c08dab3482e332fd1410e1bfaace0d095c848201526109c08201526200287f6200332e565b7f0e8ba437b5868d61f9b973137c4cd952fb172339c03826388116bccce2c7103a81527f1855c2efb5cdd92dcc912136d150121981e3c8d6fbfa98bc4be4fde4de4cbb2a838201527f022b4f6f9232a4174ed5dea64257b732557bf8ef423a23f530dbf1d566bd83d0848201526109e0820152620028fc6200332e565b7f311c7e0650fd0df0961a3dbbe1448ac8e358d6278b354ec965c9fde93c931d7081527f02ea6f520d8a6683253b77000e940b65790018a0223cfc521ee7d177c48dfcea838201527f38917e1edb51748a5fbb75f21dc8d2a1e8f81ba27ce3d9a99e3dced9f7e0fed984820152610a00820152620029796200332e565b7f0ae2bcdff44765e8ce56dca58b4acabd9d872ebe4d2575897b387b17b8782eda81527f33f7b482a14583575fcc053d41b818d0ec976d64f9de13e80a27e392204740cb838201527eb75044ab1e64540b082165ae1b24f0b209cf2e07ad988ee4be54141639425584820152610a20820152620029f56200332e565b7f168c62c9a130712a06f4a8c81f566c8160228cbea15a77692c11007abcb2c12281527f1535d4b22969a09e0d6d3403215f92a4753e0737d77dc64823be8c5f93728237838201527f3bc14c9b1809e657aeac3014306121c59bbfeb3ad5a2d4c7011fc68eb5fb82fe84820152610a4082015262002a726200332e565b7f1fe15d767035a0de4d243249f1fdd64552b2b4e6c5f12e782e395843d9b98d2881527f0b48ff1ab1beeacbe484d74b6986b26f22f7d237be137eae16871c31e4d9a893838201527f36b2261affee26ad698a05cbbc7c772e07c00d5c26e9c580d0c3efe799254eee84820152610a6082015262002aef6200332e565b7f3f0f57e0faeebd146fcdffed664d6f914c14ec292dbb99a571651f27ff60cf7581527f2f94163bf851c4346efc3dc14499588187521f18ba6aaf5ac4a5bbf14b682e79838201527f2672f5d951a8b65365fd6712c2cb31ba7bd4f3b1cfaef1c70004bed7aa33449984820152610a8082015262002b6c6200332e565b7f21f9e2c1e208498547ae6a187b19b42436329d273efb02e117e67aeb70447e7e81527f30024bd517ec5f7b07f95ff73c636d072cd3d402cca08a0bf10dbe1931bf7ccc838201527f13e279f556c2b7f4ccc3e5cd647358988c6abc253b50bb1ea37f207b73a2a4c284820152610aa082015262002be96200332e565b7f1281b80868b59eebdb1eb7c39cdc4c0c2a905aeed49c56f111354ba29880d36f81527f23a57028073c8ae241dcf1a624b22e19726fb7c7b48493f1a2f999a875945e4b838201527f07d0f467c5a310caacfff0ba7d33ba9348dda2f0894af2cb133d48c0f69a3f3f84820152610ac082015262002c666200332e565b7f0f601e33638a3663d2de675c289223777ab17491936ced4a214cf05a0823b51581527f3fe69835d03dc92d0506d30f886566abad05cee8729c518a6e7a28e84bfb4e0e838201527f2e256b5cbf22b0ab7a8ce34aa103d58fdb4e19386cb337e0ec0735aaefba2a3284820152610ae082015262002ce36200332e565b7f0f42e1965cab114ea6eb7c18ef6cda6d4bc9fd5ec09762b19d242c6cae55983181527f16621280e50044ea7118b108f632200532acaafce72638ffff64906a78dd88d8838201527f172ffffbb51f92c37e77fa0ae83562dce3f5bcc99f8892366df59b0a424ebca684820152610b0082015262002d606200332e565b7f011f59cdd2ab0f5147cbf2341b7cf6b009569209d3aa1928407ac8218df820a881527f1008e7bcbcc7617b92f5d375e6221a4db75f14b1fb23fd269a74c429ae5139b9838201527f3376ec35f2c9b5d094cc5cd003376458b16a36fa66bdf9c9e4b0dbb66b681f5284820152610b2082015262002ddd6200332e565b7f325542bd8f24ec9778cf734016a443ea2ae2badaf31d0ac8974aaf5a71c281e281527f332295450a5f8a0dd2d022d6e3002f85f6bb08ac20d92ea80b8fd101dbf7b4e0838201527f24d83e9df6ec78e66825d54820b36efaa2ec6df809360e15c374a6483d4997e984820152610b4082015262002e5a6200332e565b7f1ada38ddd9f2045fa6a124eeb4d6f820de80df32c34dc05c4a9d1a1230609bb081527f3a3c49eda2bb37f72bbbd0c138d8f34259f0849c9ebc3951ed7662aad9cba5e0838201527f2a77c7913b8b566211616642f3facb01f7cd0e98e861ad1b7a94e6cffedbaf7684820152610b6082015262002ed76200332e565b7f308b47943fe47b7d85b846076e0de89f7833363f344fd245eea6db8d1cc4acc581527f0f54259b6710bc5e74ec964949a575a4cf57045b75b00b2c3ff54d03e3cf4b0c838201527f22ba4801c3bf8e5da55d4699904c2d31c5c835ef5b3db7d2dfe877a53940515784820152610b8082015262002f546200332e565b7f3d281dd8f4e04a84647b5e17b2e9d9c14aab31ea16eaf831bf730d997e1632fb81527f2b8d7f8761d9cbae76bdbdc2c2fcfdcb2c50d3effe8ae7f86c4de8ce9452cb3d838201527f01ff021b22bc86de915e11ed2b94d5d5cd80657949f8e7be7c76fa0b41566ae784820152610ba082015262002fd16200332e565b7f25fe45bd51b1208f6c609e914e0a0916df65b3436b0a33062cf9de14ce64ff8481527f01782ec5495129666da0f103443abf453204a153cca079ababb948188480a9f0838201527f17e2d4f2c82de8497044d9593d27b08dd96cdd7126fa123b3d26cfc16faff07484820152610bc08201526200304e6200332e565b7f0526a5825999c6a7c3fceace65965e1d99325bd69de9ec5c2a42a89311f77eb581527f1f42ecc5cb80127f7a082eebe8b42bbba1e6532fd882b5940e5865e8a1dcddef838201527f289c00e5866b2d50e8cafa27d4248c7c637dc212c74b7594d3581fd2c58b48a784820152610be0820152620030cb6200332e565b7f172b9feb64dffa4ae3bfd7e33250e37aaa33b60c41d988b3347a09f92f2489b381527f3023710fb5275640f7bbc4ba1f4f23704bf1709c407ec15acb0d6d54c289f653838201527f2833ee5e8232f08a93c3f9dae4788c51e21607309160a62f56abab7418ce08d984820152610c00820152620031486200332e565b7f3963716b8e0a4f2ccccf70c159831e19d039ba66a0b0bbf3b0b59db2153707c481527f3121eb96aba2fbc19a680965e9dc5914eb6c5c7233c02d0a1c8296d421e738f3838201527f32b60e92451ceba5d978c6d6243ffedf82eceba2bf139127df5a0c8e8d0b170784820152610c20820152620031c56200332e565b7f257cdbd9b57577d3b6771573ee145b648300fe41fdf822cea443c1eaae00a2fb81527f12c9931971a1f8601f7dbf0aefd2aa74dbc8982c73322321bff389a8a429882f838201527f2eba456c640a22e92d8e01ccbf8bd1d6e802760a8cbf90ae5d9690cef84c9b1e84820152610c40820152620032426200332e565b7f275fb48078dafa653594665d853b12eacb8f6bbf5035c14ee4090837b6f2cd7381527e28ff3a29a514f9b93557b16b46dddf9f2fa1d4da92519e01a530735d62c704838201527f109b360b92c60035793177b4c6aab5632acc3eb1033c74698f2d8cddbc71fe3e84820152610c60820152906009916000905b60648210620032da578460006101355551613f3c90816200334f8239f35b82815160005b60038110620032fe57505060039060019201940191019092620032bc565b815187820155859290910190600101620032e0565b634e487b7160e01b600052604160045260246000fd5b600080fd5b60405190606082016001600160401b03811183821017620033135760405256fe6080604052600436101561001257600080fd5b60003560e01c8063051007e51461018657806307d4175e146101c25780630fe8b624146101bd57806319c56fed146101b8578063261884ec146101b3578063320d34b6146101ae5780633586dbb4146101a95780634120ea2c146101a45780634bae56801461019f5780634f76a98e1461019a57806353b8ac4a1461019557806360fe7c78146101905780636b595e1d1461018b57806374f4a7ae14610186578063751833d91461018157806378ab39bf1461017c5780637aea07a014610177578063905bf7f71461017257806398bc818c1461016d578063b61243bd14610168578063c77cf1d714610163578063c9f3ddf11461015e578063ca426b7614610159578063ca71e6ce14610154578063e399ff5c1461014f578063e7c072f51461014a5763f5dcae261461014557600080fd5b611cfa565b611c87565b611c4a565b611be5565b611b8a565b611ab4565b611956565b6118f5565b61177c565b611595565b611422565b6112d4565b61127e565b610241565b611095565b610eda565b610d10565b610cb7565b610be8565b610bae565b610b55565b610a6e565b610729565b610647565b6103e2565b6102ba565b60005b8381106101da5750506000910152565b81810151838201526020016101ca565b907fffffffffffffffffffffffffffffffffffffffffffffffffffffffffffffffe0601f602093610226815180928187528780880191016101c7565b0116010190565b90602061023e9281815201906101ea565b90565b346102b55760207ffffffffffffffffffffffffffffffffffffffffffffffffffffffffffffffffc3601126102b5576004356000526101386020526102b161029661029d6040600020604051928380926111c9565b038261056a565b6040519182916020835260208301906101ea565b0390f35b600080fd5b346102b55760207ffffffffffffffffffffffffffffffffffffffffffffffffffffffffffffffffc3601126102b557600435610135548110156102b5576000526101376020526040600020600460ff610318835460ff9060181c1690565b16036103b85780610388610376600b6103b69401547f40000000000000000000000000000000224698fc094cf91b992d30ed0000000103600a8401549061035d6105ab565b918252602082015261037160088501611990565b612879565b8051600c84015560200151600d830155565b63050000007fffffffffffffffffffffffffffffffffffffffffffffffffffffffff00ffffff825416179055565b005b60046040517fe8c31343000000000000000000000000000000000000000000000000000000008152fd5b346102b55760207ffffffffffffffffffffffffffffffffffffffffffffffffffffffffffffffffc3601126102b5576000600435815261013660205273ffffffffffffffffffffffffffffffffffffffff60408220541633036104de576101376020526104db600f604083208381556104646001820160016000918281550155565b6104776003820160016000918281550155565b8360058201556104906006820160016000918281550155565b6104a36008820160016000918281550155565b6104b6600a820160016000918281550155565b6104c9600c820160016000918281550155565b6104d5600e8201611dab565b01611dab565b80f35b80fd5b7f4e487b7100000000000000000000000000000000000000000000000000000000600052604160045260246000fd5b6101a0810190811067ffffffffffffffff82111761052d57604052565b6104e1565b6040810190811067ffffffffffffffff82111761052d57604052565b6060810190811067ffffffffffffffff82111761052d57604052565b90601f7fffffffffffffffffffffffffffffffffffffffffffffffffffffffffffffffe0910116810190811067ffffffffffffffff82111761052d57604052565b604051906105b882610532565b565b604051906105b882610510565b604051906105b88261054e565b67ffffffffffffffff811161052d57601f017fffffffffffffffffffffffffffffffffffffffffffffffffffffffffffffffe01660200190565b6040519061061b82610532565b601482527f436f64615369676e61747572652a2a2a2a2a2a2a0000000000000000000000006020830152565b346102b55760007ffffffffffffffffffffffffffffffffffffffffffffffffffffffffffffffffc3601126102b5576102b161029d61060e565b7ffffffffffffffffffffffffffffffffffffffffffffffffffffffffffffffffc60409101126102b557600490565b7fffffffffffffffffffffffffffffffffffffffffffffffffffffffffffffffbc60409101126102b557604490565b9181601f840112156102b55782359167ffffffffffffffff83116102b557602083818601950101116102b557565b60a4359081151582036102b557565b359081151582036102b557565b346102b55760c07ffffffffffffffffffffffffffffffffffffffffffffffffffffffffffffffffc3601126102b55761076136610681565b61076a366106b0565b60843567ffffffffffffffff81116102b55761078a9036906004016106df565b909261079461070d565b6107ad6107a96107a43685611754565b61208f565b1590565b61090957610842610890936102b19661083961013554976107d66107d08a6120f0565b61013555565b6108276107ee8a600052610137602052604060002090565b80547fffffffffffffffffffffffffffffffffffffffffffffffffffffffff00ffffff16815597803560018a0155602001356002890155565b80356003880155602001356004870155565b600e8501612162565b81547fffffffffffffffffffffffffffffffffffffffffffffffffffffffffffff00001661ff009115801560081b929092161760011782556108f957600f610888611cc1565b915b01612283565b6108e9336108a983600052610136602052604060002090565b9073ffffffffffffffffffffffffffffffffffffffff167fffffffffffffffffffffffff0000000000000000000000000000000000000000825416179055565b6040519081529081906020820190565b600f61090361060e565b9161088a565b60046040517fa2d0fee8000000000000000000000000000000000000000000000000000000008152fd5b9061023e916020815261094b60208201835115159052565b602082015115156040820152604082015115156060820152606082015160ff1660808201526080820151805160a08301526020015160c082015260a0820151805160e08301526020015161010082015260c0820151906101209182820152610a1d60e08401516109cb610140918285019060208091805184520151910152565b610a06610100860151946109ef610180968787019060208091805184520151910152565b86015180516101c0860152602001516101e0850152565b840151805161020084015260200151610220830152565b61016083015191610a3d61026093846102408501526102808401906101ea565b930151917fffffffffffffffffffffffffffffffffffffffffffffffffffffffffffffffe0828503019101526101ea565b346102b55760207ffffffffffffffffffffffffffffffffffffffffffffffffffffffffffffffffc3601126102b5576060610180604051610aae81610510565b600081526000602082015260006040820152600083820152610ace611df4565b6080820152610adb611df4565b60a0820152600060c0820152610aef611df4565b60e0820152610afc611df4565b610100820152610b0a611df4565b610120820152610b18611df4565b6101408201528261016082015201526102b1610b49610b44600435600052610137602052604060002090565b611e0d565b60405191829182610933565b346102b55760007ffffffffffffffffffffffffffffffffffffffffffffffffffffffffffffffffc3601126102b55760206040517f1b74b5a30a12937c53dfa9f06378ee548f655bd4333d477119cf7a23caed2abb8152f35b346102b55760007ffffffffffffffffffffffffffffffffffffffffffffffffffffffffffffffffc3601126102b557602060405160058152f35b346102b55760207ffffffffffffffffffffffffffffffffffffffffffffffffffffffffffffffffc3601126102b557600435610135548110156102b5576000526101376020526040600020600160ff825460181c16036103b85780610c89610c7760016103b6940154610c7260018060028701541614610c666105ab565b92835215156020830152565b612513565b80516006840155602001516007830155565b63020000007fffffffffffffffffffffffffffffffffffffffffffffffffffffffff00ffffff825416179055565b346102b55760007ffffffffffffffffffffffffffffffffffffffffffffffffffffffffffffffffc3601126102b55760206040517f40000000000000000000000000000000224698fc094cf91b992d30ed000000018152f35b346102b55760207ffffffffffffffffffffffffffffffffffffffffffffffffffffffffffffffffc3601126102b557600435610135548110156102b557610d6290600052610137602052604060002090565b805460ff8160181c166103b85760ff1615610de15780610dae610d8a600e6103b694016119ae565b610d9660018401611990565b600384015490610da8600f86016119ae565b92613952565b600582015563010000007fffffffffffffffffffffffffffffffffffffffffffffffffffffffff00ffffff825416179055565b6040517f08c379a000000000000000000000000000000000000000000000000000000000815260206004820152600f60248201527f4e6f7420696e697469616c697a656400000000000000000000000000000000006044820152606490fd5b9061023e9160208152610e5960208201835160ff169052565b60208201516040820152610e766040830151606083019015159052565b6060820151151560808201526080820151805160a08301526020015160c082015260a0820151805160e08301526020015161010082015260c082015161012082015260e082015190610100610a3d61016093846101408501526101808401906101ea565b346102b55760207ffffffffffffffffffffffffffffffffffffffffffffffffffffffffffffffffc3601126102b55760043567ffffffffffffffff81116102b55761106e611076610f326102b19336906004016106df565b80610f3e949294611ef0565b94610f85610f7e610f78610f528585611f87565b357fff000000000000000000000000000000000000000000000000000000000000001690565b60f81c90565b60ff168752565b610f98610f928383611fb3565b90611fff565b60208701526110577fff00000000000000000000000000000000000000000000000000000000000000610fce610f528585611f95565b16151560408801908152611019611010610feb610f528787611fa4565b7fff000000000000000000000000000000000000000000000000000000000000001690565b151560608a0152565b608088016023840135815152602060438501359151015260a088016063840135815152602060838501359151015260a383013560c089015251151590565b1561108857611064611cc1565b60e0870152611fc4565b81019061203a565b61010082015260405191829182610e40565b61109061060e565b611064565b346102b55760207ffffffffffffffffffffffffffffffffffffffffffffffffffffffffffffffffc3601126102b557600435610135548110156102b5576000526101376020526040600020600260ff825460181c16036103b8576103b6906111486111366111016105ab565b600181527f1b74b5a30a12937c53dfa9f06378ee548f655bd4333d477119cf7a23caed2abb6020820152600484015490613339565b80516008840155602001516009830155565b63030000007fffffffffffffffffffffffffffffffffffffffffffffffffffffffff00ffffff825416179055565b90600182811c921680156111bf575b602083101461119057565b7f4e487b7100000000000000000000000000000000000000000000000000000000600052602260045260246000fd5b91607f1691611185565b90600092918054916111da83611176565b91828252600193848116908160001461123c57506001146111fc575b50505050565b90919394506000526020928360002092846000945b8386106112285750505050010190388080806111f6565b805485870183015294019385908201611211565b91505060209495507fffffffffffffffffffffffffffffffffffffffffffffffffffffffffffffff009193501683830152151560051b010190388080806111f6565b346102b55760007ffffffffffffffffffffffffffffffffffffffffffffffffffffffffffffffffc3601126102b55760206040517c40000000000000000000000000224698fc0994a8dd8c46eb21000000018152f35b346102b55760207ffffffffffffffffffffffffffffffffffffffffffffffffffffffffffffffffc3601126102b557600435610135548110156102b55761132681600052610137602052604060002090565b90600560ff61133a845460ff9060181c1690565b16036103b857816113f66114009261139e61135a600c6102b19701611990565b60038501548151149081611412575b5084547fffffffffffffffffffffffffffffffffffffffffffffffffffffffffff00ffff1690151560101b62ff000016178455565b82547fffffffffffffffffffffffffffffffffffffffffffffffffffffffff00ffffff1663060000001783556113f16113df826113da86611e0d565b6123ba565b91600052610138602052604060002090565b612283565b5460101c60ff1690565b60405190151581529081906020820190565b6001915060200151161538611369565b346102b55760207ffffffffffffffffffffffffffffffffffffffffffffffffffffffffffffffffc3601126102b557600435610135548110156102b5576000526101376020526040600020600360ff825460181c16036103b85780602061149c61149160066103b69501611990565b600584015490613339565b8051600a8401550151600b82015563040000007fffffffffffffffffffffffffffffffffffffffffffffffffffffffff00ffffff825416179055565b81601f820112156102b5578035906114ef826105d4565b926114fd604051948561056a565b828452602083830101116102b557816000926020809301838601378301015290565b67ffffffffffffffff811161052d5760051b60200190565b81601f820112156102b55780359161154e8361151f565b9261155c604051948561056a565b808452602092838086019260051b8201019283116102b5578301905b828210611586575050505090565b81358152908301908301611578565b346102b55760407ffffffffffffffffffffffffffffffffffffffffffffffffffffffffffffffffc3601126102b55767ffffffffffffffff6004358181116102b5576115e59036906004016114d8565b906024359081116102b5576115fe903690600401611537565b6116066133c0565b61160e613437565b90602080855110156116e857600090815b81811061167a576102b16116698761166488887f40000000000000000000000000000000224698fc094cf91b992d30ed00000001890661165e836134f5565b52613536565b613536565b516040519081529081906020820190565b86518110611691575b61168c906120f0565b61161f565b9161168c906116d56116cf610f786116a9878c613913565b517fff000000000000000000000000000000000000000000000000000000000000001690565b60ff1690565b6116de85611d7a565b1b17929050611683565b606490604051907f08c379a00000000000000000000000000000000000000000000000000000000082526004820152600f60248201527f70726566697820746f6f206c6f6e6700000000000000000000000000000000006044820152fd5b359060ff821682036102b557565b91908260409103126102b55760405161176c81610532565b6020808294803584520135910152565b346102b5577ffffffffffffffffffffffffffffffffffffffffffffffffffffffffffffffffc6040813601126102b55760043567ffffffffffffffff918282116102b5576102609082360301126102b5576117d56105ba565b6117e18260040161071c565b81526117ef6024830161071c565b60208201526118006044830161071c565b604082015261181160648301611746565b60608201526118233660848401611754565b60808201526118353660c48401611754565b60a082015261010482013560c0820152611853366101248401611754565b60e0820152611866366101648401611754565b61010082015261187a366101a48401611754565b61012082015261188e366101e48401611754565b6101408201526102248201358381116102b5576118b190600436918501016114d8565b6101608201526102448201359283116102b5576118da6118e99260046102b195369201016114d8565b610180820152602435906123ba565b6040519182918261022d565b346102b55760207ffffffffffffffffffffffffffffffffffffffffffffffffffffffffffffffffc3601126102b557600435600052610136602052602073ffffffffffffffffffffffffffffffffffffffff60406000205416604051908152f35b346102b55760007ffffffffffffffffffffffffffffffffffffffffffffffffffffffffffffffffc3601126102b557602060405160018152f35b9060405161199d81610532565b602060018294805484520154910152565b906105b86119c292604051938480926111c9565b038361056a565b9b989296611a3d611a7f9761023e9f9d998f611a2c611aa59f9a611a1a611a939f989b611a1060c096611a579c611a6b9f1515885215156020880152604087019015159052565b60ff166060850152565b805160808401526020015160a0830152565b019060208091805184520151910152565b6101008d015280516101208d0152602001516101408c0152565b80516101608b0152602001516101808a0152565b80516101a0890152602001516101c0880152565b80516101e087015260200151610200860152565b610260806102208601528401906101ea565b916102408184039101526101ea565b346102b55760207ffffffffffffffffffffffffffffffffffffffffffffffffffffffffffffffffc3601126102b557600435600052610137602052604060002080546102b1611b0560018401611990565b92611b1260038201611990565b906005810154611b2460068301611990565b611b3060088401611990565b611b3c600a8501611990565b91611b49600c8601611990565b93611b62600f611b5b600e89016119ae565b97016119ae565b966040519a8a60ff8d9c60181c169060ff8160101c16908d60ff808360081c169216906119c9565b346102b55760407ffffffffffffffffffffffffffffffffffffffffffffffffffffffffffffffffc3601126102b5576020611bdb604051611bca81610532565b60043581526024358382015261208f565b6040519015158152f35b346102b55760207ffffffffffffffffffffffffffffffffffffffffffffffffffffffffffffffffc3601126102b55760043567ffffffffffffffff81116102b557611c41611c396020923690600401611537565b6116646133c0565b51604051908152f35b346102b55760007ffffffffffffffffffffffffffffffffffffffffffffffffffffffffffffffffc3601126102b557602061013554604051908152f35b346102b55760007ffffffffffffffffffffffffffffffffffffffffffffffffffffffffffffffffc3601126102b557602060405160808152f35b60405190611cce82610532565b601482527f4d696e615369676e61747572654d61696e6e65740000000000000000000000006020830152565b346102b55760007ffffffffffffffffffffffffffffffffffffffffffffffffffffffffffffffffc3601126102b5576102b161029d611cc1565b818110611d3f575050565b60008155600101611d34565b7f4e487b7100000000000000000000000000000000000000000000000000000000600052601160045260246000fd5b908160031b9180830460081490151715611d9057565b611d4b565b908160011b9180830460021490151715611d9057565b611db58154611176565b9081611dbf575050565b81601f60009311600114611dd1575055565b908083918252611df0601f60208420940160051c840160018501611d34565b5555565b60405190611e0182610532565b60006020838281520152565b90611ee8600f611e1b6105ba565b93611e5d60ff8254611e31828216899015159052565b600881901c821615156020890152601081901c82161515604089015260181c16606087019060ff169052565b611e6960018201611990565b6080860152611e7a60038201611990565b60a0860152600581015460c0860152611e9560068201611990565b60e0860152611ea660088201611990565b610100860152611eb8600a8201611990565b610120860152611eca600c8201611990565b610140860152611edc600e82016119ae565b610160860152016119ae565b610180830152565b60405190610120820182811067ffffffffffffffff82111761052d57604052606061010083600081526000602082015260006040820152600083820152611f35611df4565b6080820152611f42611df4565b60a0820152600060c08201528260e08201520152565b7f4e487b7100000000000000000000000000000000000000000000000000000000600052603260045260246000fd5b9015611f905790565b611f58565b9060211015611f905760210190565b9060221015611f905760220190565b906021116102b55760010190602090565b909291928360c3116102b55783116102b55760c301917fffffffffffffffffffffffffffffffffffffffffffffffffffffffffffffff3d0190565b35906020811061200d575090565b7fffffffffffffffffffffffffffffffffffffffffffffffffffffffffffffffff9060200360031b1b1690565b906020828203126102b557813567ffffffffffffffff81116102b55761023e92016114d8565b7f4e487b7100000000000000000000000000000000000000000000000000000000600052601260045260246000fd5b8051907f40000000000000000000000000000000224698fc094cf91b992d30ed00000001908183108015906120e2575b6120da57600582602081930151948181800909089180091490565b505050600090565b5081602082015110156120bf565b7fffffffffffffffffffffffffffffffffffffffffffffffffffffffffffffffff8114611d905760010190565b9190601f811161212c57505050565b6105b8926000526020600020906020601f840160051c83019310612158575b601f0160051c0190611d34565b909150819061214b565b90929167ffffffffffffffff811161052d57612188816121828454611176565b8461211d565b6000601f82116001146121df57819293946000926121d4575b50507fffffffffffffffffffffffffffffffffffffffffffffffffffffffffffffffff8260011b9260031b1c1916179055565b0135905038806121a1565b7fffffffffffffffffffffffffffffffffffffffffffffffffffffffffffffffe082169461221284600052602060002090565b91805b87811061226b575083600195969710612233575b505050811b019055565b7fffffffffffffffffffffffffffffffffffffffffffffffffffffffffffffffff60f88560031b161c19910135169055388080612229565b90926020600181928686013581550194019101612215565b919091825167ffffffffffffffff811161052d576122a5816121828454611176565b602080601f83116001146122fd5750819293946000926122f25750507fffffffffffffffffffffffffffffffffffffffffffffffffffffffffffffffff8260011b9260031b1c1916179055565b0151905038806121a1565b907fffffffffffffffffffffffffffffffffffffffffffffffffffffffffffffffe083169561233185600052602060002090565b926000905b88821061238b5750508360019596971061235457505050811b019055565b01517fffffffffffffffffffffffffffffffffffffffffffffffffffffffffffffffff60f88460031b161c19169055388080612229565b80600185968294968601518155019501930190612336565b906123b6602092828151948592016101c7565b0190565b602081810151604080840151608085015180519085015160a087015180519087015160c089015195517f0100000000000000000000000000000000000000000000000000000000000000818a0152602181019a909a5295151560f890811b60418b015293151590931b604289015260438801919091526063870152608386015260a385019190915260c38085019190915283527fffffffffffffffffffffffffffffffffffffffffffffffffffffffffffffffe09161247a60e38561056a565b61016001516040518091838201906124919161022d565b0383810182526124a1908261056a565b60405193849283016124b2916123a3565b6124bb916123a3565b03908101825261023e908261056a565b907fffffffffffffffffffffffffffffffffffffffffffffffffffffffffffffffff8201918211611d9057565b6007039060078211611d9057565b91908203918211611d9057565b61251b611df4565b508051907f40000000000000000000000000000000224698fc094cf91b992d30ed00000001602061255582600581878181800909086125f3565b92015115156001808416140361257e575b506040519161257483610532565b8252602082015290565b908103908111611d905738612566565b1561259557565b60646040517f08c379a000000000000000000000000000000000000000000000000000000000815260206004820152601a60248201527f53717561726520726f6f7420646f6573206e6f742065786973740000000000006044820152fd5b80156127a15760007f40000000000000000000000000000000224698fc094cf91b992d30ed000000005b6001808216612637571c90612631906120f0565b9061261d565b50909160025b7f40000000000000000000000000000000224698fc094cf91b992d30ed00000000612667826127a7565b1461267a57612675906120f0565b61263d565b8261268491612820565b92612693600193841c83612820565b906000947f40000000000000000000000000000000224698fc094cf91b992d30ed00000001808095850980979409905b8582036126d35750505050505090565b856000979394959697918184905b61275f575b506126f286841061258e565b946000915b612721575b50509361271c5784808085800980930993600093099594939192906126c3565b612060565b866127376127328584999599612506565b6124cb565b8710156127565761271c5761275088838b9409966120f0565b916126f7565b508195506126fc565b92909180889185141580612798575b1561278f575061271c5761278688848b9509916120f0565b929190826126e1565b929193506126e6565b5087831061276e565b50600090565b60405190602082526020808301526020604083015260608201527f2000000000000000000000000000000011234c7e04a67c8dcc9698768000000060808201527f40000000000000000000000000000000224698fc094cf91b992d30ed0000000160a082015260208160c08160055afa156102b5575190565b90604051916020835260208084015260206040840152606083015260808201527f40000000000000000000000000000000224698fc094cf91b992d30ed0000000160a082015260208160c08160055afa156102b5575190565b61023e9161289b6128956128a19361288f611df4565b506128c5565b916128c5565b90612a62565b61292e565b604051906128b38261054e565b60006040838281528260208201520152565b6128cd6128a6565b5080511580612922575b6129005760208151910151604051916128ef8361054e565b825260208201526001604082015290565b5060405161290d8161054e565b60018152600160208201526000604082015290565b506020810151156128d7565b612936611df4565b5060408101805115612a46575180156129e85760006001917f40000000000000000000000000000000224698fc094cf91b992d30ed0000000190805b6129d05750507f40000000000000000000000000000000224698fc094cf91b992d30ed0000000180925081116129c9575b818082800960208282875109950151926129bb6105ab565b958652099009602082015290565b81016129a3565b80820484810290930393929091908202900380612972565b60646040517f08c379a000000000000000000000000000000000000000000000000000000000815260206004820152600f60248201527f43616e6e6f7420696e76657274203000000000000000000000000000000000006044820152fd5b5050604051612a5481610532565b600081526000602082015290565b90612a6b6128a6565b506040820151908115613226576040810151918215613220577f40000000000000000000000000000000224698fc094cf91b992d30ed0000000180848009855109917f40000000000000000000000000000000224698fc094cf91b992d30ed000000018083800982510990602080870151910151957f40000000000000000000000000000000224698fc094cf91b992d30ed000000018581038408156131155750612b146105c7565b957f40000000000000000000000000000000224698fc094cf91b992d30ed0000000185810384087f40000000000000000000000000000000224698fc094cf91b992d30ed000000018681038508907f40000000000000000000000000000000224698fc094cf91b992d30ed00000001910960047f40000000000000000000000000000000224698fc094cf91b992d30ed0000000191097f40000000000000000000000000000000224698fc094cf91b992d30ed000000019086097f40000000000000000000000000000000224698fc094cf91b992d30ed0000000186810385087f40000000000000000000000000000000224698fc094cf91b992d30ed000000018781038608907f40000000000000000000000000000000224698fc094cf91b992d30ed00000001910960047f40000000000000000000000000000000224698fc094cf91b992d30ed0000000191097f40000000000000000000000000000000224698fc094cf91b992d30ed000000018781038608907f40000000000000000000000000000000224698fc094cf91b992d30ed000000019109927f40000000000000000000000000000000224698fc094cf91b992d30ed000000018880097f40000000000000000000000000000000224698fc094cf91b992d30ed000000019089097f40000000000000000000000000000000224698fc094cf91b992d30ed00000001910991827f40000000000000000000000000000000224698fc094cf91b992d30ed0000000103907f40000000000000000000000000000000224698fc094cf91b992d30ed000000018780097f40000000000000000000000000000000224698fc094cf91b992d30ed000000019088097f40000000000000000000000000000000224698fc094cf91b992d30ed000000019109907f40000000000000000000000000000000224698fc094cf91b992d30ed0000000191087f40000000000000000000000000000000224698fc094cf91b992d30ed0000000190600209917f40000000000000000000000000000000224698fc094cf91b992d30ed00000001826002097f40000000000000000000000000000000224698fc094cf91b992d30ed000000019085087f40000000000000000000000000000000224698fc094cf91b992d30ed00000001037f40000000000000000000000000000000224698fc094cf91b992d30ed00000001848009907f40000000000000000000000000000000224698fc094cf91b992d30ed00000001910893848a527f40000000000000000000000000000000224698fc094cf91b992d30ed0000000191097f40000000000000000000000000000000224698fc094cf91b992d30ed00000001906002097f40000000000000000000000000000000224698fc094cf91b992d30ed0000000103927f40000000000000000000000000000000224698fc094cf91b992d30ed00000001037f40000000000000000000000000000000224698fc094cf91b992d30ed0000000191087f40000000000000000000000000000000224698fc094cf91b992d30ed000000019109907f40000000000000000000000000000000224698fc094cf91b992d30ed00000001910860208601527f40000000000000000000000000000000224698fc094cf91b992d30ed00000001848308927f40000000000000000000000000000000224698fc094cf91b992d30ed00000001037f40000000000000000000000000000000224698fc094cf91b992d30ed00000001910892807f40000000000000000000000000000000224698fc094cf91b992d30ed00000001910990807f40000000000000000000000000000000224698fc094cf91b992d30ed000000019109907f40000000000000000000000000000000224698fc094cf91b992d30ed0000000191087f40000000000000000000000000000000224698fc094cf91b992d30ed000000010390807f40000000000000000000000000000000224698fc094cf91b992d30ed000000019109907f40000000000000000000000000000000224698fc094cf91b992d30ed000000019108907f40000000000000000000000000000000224698fc094cf91b992d30ed000000019109604082015290565b947f40000000000000000000000000000000224698fc094cf91b992d30ed00000001809495508092935081800990099009917f40000000000000000000000000000000224698fc094cf91b992d30ed00000001808084800984098509831461321357507f40000000000000000000000000000000224698fc094cf91b992d30ed0000000192838281818195099009900990081561320b576040517f08c379a000000000000000000000000000000000000000000000000000000000815260206004820152601660248201527f496e76616c696420706f696e74206164646974696f6e000000000000000000006044820152606490fd5b61290d6105c7565b91505061023e915061322c565b50505090565b91505090565b6132346128a6565b50604081018051156133355760208201918251156132d6575191519051907f40000000000000000000000000000000224698fc094cf91b992d30ed000000019182918280868009818080808080888009818180099c0881808d880881039180090860020992600309818080856002098103818480090893816132b46105c7565b9b868d5260080982039482039008900908602086015209600209604082015290565b6040517f08c379a000000000000000000000000000000000000000000000000000000000815260206004820152601c60248201527f43616e6e6f7420646f75626c6520706f696e74207769746820793d30000000006044820152606490fd5b5090565b6133459061288f611df4565b906040516133528161054e565b816001918281528260208201526000604082015293905b6133795750505061023e9061292e565b8180841614613396575b61338c9061322c565b91811c9182613369565b926133a48461338c92612a62565b939050613383565b604051906133b98261054e565b6060368337565b60606040516133ce8161054e565b3690376040516133dd8161054e565b60008152600060208201526000604082015290565b9060028201809211611d9057565b9060018201809211611d9057565b9060fe8201809211611d9057565b9060078201809211611d9057565b91908201809211611d9057565b6040519061344482610532565b6001825260203681840137565b6040516020810181811067ffffffffffffffff82111761052d5760405260008152906000368137565b604051906080820182811067ffffffffffffffff82111761052d57604052600382526060366020840137565b906134b08261151f565b6134bd604051918261056a565b8281527fffffffffffffffffffffffffffffffffffffffffffffffffffffffffffffffe06134eb829461151f565b0190602036910137565b805115611f905760200190565b805160011015611f905760400190565b805160021015611f905760600190565b8051821015611f905760209160051b010190565b91906135406133ac565b508051156136535761356661356161355b61273284516133f2565b60011c90565b611d95565b91613570836134a6565b9360005b83518110156135a1578061358b61359c9286613522565b516135968289613522565b526120f0565b613574565b509290939150600091825b8284106135ba575050505090565b909192938181516135cb8786613522565b519161271c577f40000000000000000000000000000000224698fc094cf91b992d30ed000000019182910882528461360287613400565b10613623575b5061361561361b9161365a565b946133f2565b9291906135ac565b915061361581602061361b930180519461364561363f8a613400565b88613522565b516000960890529150613608565b509061023e905b6136626133ac565b5080517f40000000000000000000000000000000224698fc094cf91b992d30ed00000001809160095490088252602090818301818151600a5490089052604091828401828151600b549008905260009182935b603f84106136c557505050505090565b9091929394806136d86136fd9251613767565b81528481016136e78151613767565b90528281016136f68151613767565b9052613870565b809581519161371361370e88613400565b613794565b9161271c5784849261375f940881528581018581516137396137348b613400565b61381c565b9008905201948551958461375461374f84613400565b613846565b6000980890526120f0565b9291906136b5565b7f40000000000000000000000000000000224698fc094cf91b992d30ed0000000190818082800980090990565b6040811080613814575b156137b6576064811015611f90576003026009015490565b60646040517f08c379a000000000000000000000000000000000000000000000000000000000815260206004820152601e60248201527f496e76616c696420726f756e6420636f6e7374616e7420696e646963657300006044820152fd5b50600161379e565b604081108061383e575b156137b6576064811015611f9057600302600a015490565b506001613826565b6040811080613868575b156137b6576064811015611f9057600302600b015490565b506001613850565b906138796133ac565b91600054907f40000000000000000000000000000000224698fc094cf91b992d30ed000000018080809484519009818080600154938160208901958651900990089581600254978160408401998a51900990088a528180806003548451900981600454885190099008816005548a519009900860208b01526006549051900991600754905190099008916008549051900990086040830152565b908151811015611f90570160200190565b60405190611fe0820182811067ffffffffffffffff82111761052d5760405260fe8252611fc0366020840137565b6139cf916139ca91613a22959461397061396a613451565b92613a43565b6139786105ab565b9283526020830152602061398a61347a565b938051613996866134f5565b5201516139a284613502565b526139ac83613512565b526139b5613451565b6139bd6105ab565b9283526020830152613dd7565b613ae9565b90602081519101206139df611cc1565b6020815191012014600014613a26576116647374656e6e69614d65727574616e676953616e694d5b613a0f613437565b90613a19826134f5565b526116646133c0565b5190565b611664732a2a2a2a2a2a2a65727574616e67695361646f43613a07565b8051908160031b600892808204841490151715611d9057613a63906134a6565b90600090815b8151811015613ae157613a82610f786116a98385613913565b835b868110613a9b575050613a96906120f0565b613a69565b80613ad760ff6001613aaf613adc956124f8565b1b8516161515613ad0613aca84613ac589611d7a565b61342a565b8a613522565b9015159052565b6120f0565b613a84565b505050905090565b9060208201613b06613aff61273283515161340e565b60fe900490565b91613b1b613b168486515161342a565b6134a6565b9160005b85518051821015613b485790613b3881613b4393613522565b516135968287613522565b613b1f565b505091929093600090815b838310613b6257505050505090565b613b6b8161340e565b81865151809211600014613c0b57613b8291612506565b905b613b8c613924565b60005b838110613bd7575091613bcb91613bb0613bab613bd195613c6b565b613d4d565b613bc5613bbf8888515161342a565b8b613522565b5261342a565b926120f0565b91613b53565b613c0690613ad7613bfc613bf68b51613bf0858961342a565b90613522565b51151590565b613ad08386613522565b613b8f565b505060fe90613b84565b90613c1f826105d4565b613c2c604051918261056a565b8281527fffffffffffffffffffffffffffffffffffffffffffffffffffffffffffffffe06134eb82946105d4565b60ff1660ff8114611d905760010190565b613c7e613c78825161341c565b60031c90565b613c8781613c15565b916000915b808310613c995750505090565b60009492939492835b60ff8082166008811015613d0557613cbd81613ac58a611d7a565b865181109081613cf0575b50613cde575b5050613cd990613c5a565b613ca2565b6001901b1690941793613cd938613cce565b613cff9150613bf69088613522565b38613cc8565b50505094937fff00000000000000000000000000000000000000000000000000000000000000613d47929460f81b1660001a613d418287613913565b536120f0565b91613c8c565b90600091825b8151841015613d9657613d668483613913565b5160f81c8460031b85810460081486151715611d90571b8101809111611d9057613d9090936120f0565b92613d53565b7f40000000000000000000000000000000224698fc094cf91b992d30ed000000019006925050565b60405190613dcb82610532565b60606020838281520152565b919091613de2613dbe565b50613df5613b168251518551519061342a565b926020820191825151613e12613b1660208501928351519061342a565b9460005b83518051821015613e3f5790613e2f81613e3a93613522565b51613596828b613522565b613e16565b505091939490929460005b86518051821015613e785790613e6381613e7393613522565b51613596613bbf838a515161342a565b613e4a565b50509291959450925060005b82518051821015613eb25790613ad7613ea3613bf683613ead95613522565b613ad08388613522565b613e84565b505092909360005b84518051821015613eed5790613ad7613ed9613bf683613ee895613522565b613ad061363f848b515161342a565b613eba565b505093509150613efb6105ab565b91825260208201529056fea264697066735822122045c974aabc54d3eb217228809f70a8ebb5b214a0349b2fa4bef9555c6d47894864736f6c63430008140033",
  "devdoc": {
    "details": "Verifies signatures over message generated using mina-signer.",
    "kind": "dev",
    "methods": {
      "cleanupVMLifecycle(uint256)": {
        "details": "Can only be called by the creator of the verification process",
        "params": {
          "vmId": "The ID of the verification process to clean up"
        }
      },
      "decodeVMStateBytesCompressed(bytes)": {
        "details": "The prefix is set conditionally based on the mainnet flag:      - mainnet=true: \"MinaSignatureMainnet\"      - mainnet=false: \"CodaSignature*******\"",
        "params": {
          "data": "The compressed bytes containing all VM state fields. Expected minimum length is 195 bytes             plus additional bytes for the dynamic message string"
        },
        "returns": {
          "state": "The decoded VerifyMessageStateCompressed struct containing:               - verifyType (1 byte)               - vmId (32 bytes)               - mainnet flag (1 byte)               - isValid flag (1 byte)               - publicKey (x,y coordinates, 64 bytes)               - signature (r,s values, 64 bytes)               - messageHash (32 bytes)               - prefix (network-dependent string)               - message (dynamic string starting at byte 195)"
        }
      },
      "getVMState(uint256)": {
        "details": "Returns a copy of the state, not a reference",
        "params": {
          "vmId": "The ID of the verification process"
        },
        "returns": {
          "state": "The complete verification state structure"
        }
      },
      "getVMStateBytesCompressed(uint256)": {
        "params": {
          "vmId": "The ID of the verification process"
        },
        "returns": {
          "_0": "state The complete verification state structure in bytes"
        }
      },
      "isValidPublicKey((uint256,uint256))": {
        "details": "Checks if the point coordinates satisfy the curve equation y = x + 5",
        "params": {
          "point": "The point to validate with x and y coordinates"
        },
        "returns": {
          "_0": "bool True if the point lies on the curve, false otherwise"
        }
      },
      "packVerifyMessageStateCompressed((bool,bool,bool,uint8,(uint256,uint256),(uint256,uint256),uint256,(uint256,uint256),(uint256,uint256),(uint256,uint256),(uint256,uint256),string,string),uint256)": {
        "details": "Combines fixed-length data with the dynamic message string using abi.encodePacked and abi.encode",
        "params": {
          "state": "The VerifyMessageState to be compressed",
          "vmId": "The unique identifier for this message verification state"
        },
        "returns": {
          "_0": "bytes The packed binary representation of the state"
        }
      },
      "poseidonLegacyHash(uint256[])": {
        "details": "Main hashing function without prefix",
        "params": {
          "input": "Array to hash"
        },
        "returns": {
          "_0": "uint256 Hash result"
        }
      },
      "poseidonLegacyHashWithPrefix(string,uint256[])": {
        "details": "Hashes prefix followed by input array",
        "params": {
          "input": "Array to hash",
          "prefix": "String prefix"
        },
        "returns": {
          "_0": "uint256 Hash result"
        }
      },
      "step_0_VM_assignValues((uint256,uint256),(uint256,uint256),string,bool)": {
        "params": {
          "message": "The string message to verify",
          "network": "Network identifier (true for mainnet, false for testnet)",
          "publicKey": "The public key point (x,y)",
          "signature": "Contains r (x-coordinate) and s (scalar)"
        }
      },
      "step_1_VM(uint256)": {
        "params": {
          "vmId": "Verification state identifier"
        }
      },
      "step_2_VM(uint256)": {
        "params": {
          "vmId": "Verification state identifier"
        }
      },
      "step_3_VM(uint256)": {
        "params": {
          "vmId": "Verification state identifier"
        }
      },
      "step_4_VM(uint256)": {
        "params": {
          "vmId": "Verification state identifier"
        }
      },
      "step_5_VM(uint256)": {
        "params": {
          "vmId": "Verification state identifier"
        }
      },
      "step_6_VM(uint256)": {
        "params": {
          "vmId": "Verification state identifier"
        },
        "returns": {
          "_0": "bool True if signature is valid, false otherwise"
        }
      }
    },
    "stateVariables": {
      "vmCounter": {
        "details": "Used as a unique ID. Incremented for each new verification process"
      },
      "vmLifeCycle": {
        "details": "Main storage for verification process states"
      },
      "vmLifeCycleCreator": {
        "details": "Used for access control in cleanup operations"
      }
    },
    "title": "PallasMessageSignatureVerifier",
    "version": 1
  },
  "userdoc": {
    "kind": "user",
    "methods": {
      "BEQ()": {
        "notice": "Curve equation constant (B) where y = x + B"
      },
      "DEFAULT_STRING_LENGTH()": {
        "notice": "Default length for string operations"
      },
      "FIELD_MODULUS()": {
        "notice": "Field modulus for Pallas curve"
      },
      "G_X()": {
        "notice": "Generator point x-coordinate"
      },
      "G_Y()": {
        "notice": "Generator point y-coordinate"
      },
      "MAINNET_SIGNATURE_PREFIX()": {
        "notice": "Signature prefix for mainnet"
      },
      "SCALAR_MODULUS()": {
        "notice": "Scalar field modulus for Pallas curve"
      },
      "SIGNATURE_PREFIX()": {
        "notice": "Default signature prefix for testnet"
      },
      "cleanupVMLifecycle(uint256)": {
        "notice": "Removes a verification process state from storage"
      },
      "decodeVMStateBytesCompressed(bytes)": {
        "notice": "Decodes a compressed byte array into a VerifyMessageStateCompressed struct"
      },
      "getVMState(uint256)": {
        "notice": "Retrieves the complete state of a verification process"
      },
      "getVMStateBytesCompressed(uint256)": {
        "notice": "Retrieves the complete state of a verification process in bytes"
      },
      "isValidPublicKey((uint256,uint256))": {
        "notice": "Validates if a point lies on the Pallas curve"
      },
      "packVerifyMessageStateCompressed((bool,bool,bool,uint8,(uint256,uint256),(uint256,uint256),uint256,(uint256,uint256),(uint256,uint256),(uint256,uint256),(uint256,uint256),string,string),uint256)": {
        "notice": "Packs a VerifyMessageState into a compressed bytes format for efficient storage"
      },
      "poseidonLegacyHashWithPrefix(string,uint256[])": {
        "notice": "Computes Poseidon hash with prefix"
      },
      "step_0_VM_assignValues((uint256,uint256),(uint256,uint256),string,bool)": {
        "notice": "Zero step - Input assignment for message verification ================================================== Initializes the verification state for a message signature"
      },
      "step_1_VM(uint256)": {
        "notice": "Compute hash of the message with network prefix ================================================== Matches the first part of verify(): let e = hashMessage(message, pk, r, networkId) Process: 1. Convert string message to bytes 2. Append public key coordinates and signature.r 3. Apply network prefix and hash"
      },
      "step_2_VM(uint256)": {
        "notice": "Convert public key to curve point ================================================== From o1js: PublicKey.toGroup(publicKey) This converts compressed public key format (x, isOdd) to full curve point representation by: 1. Computing y = x + 5 (Pallas curve equation) 2. Taking square root 3. Selecting appropriate y value based on isOdd"
      },
      "step_3_VM(uint256)": {
        "notice": "Compute s*G where G is generator point ================================================== From o1js: scale(one, s) Critical: Do not reduce scalar by SCALAR_MODULUS Uses projective coordinates internally for efficiency Must use exact generator point coordinates from o1js: G.x = 1 G.y = specific value from PallasConstants"
      },
      "step_4_VM(uint256)": {
        "notice": "Compute e*publicKey ================================================== From o1js: scale(Group.toProjective(pk), e) where e is the message hash computed in step 1 Uses same scalar multiplication as s*G Takes public key point from step 2"
      },
      "step_5_VM(uint256)": {
        "notice": "Compute R = sG - ePk ================================================== From o1js: sub(scale(one, s), scale(Group.toProjective(pk), e)) Implemented as point addition with negated ePk Point negation on Pallas: (x, -y) R will be used for final verification"
      },
      "step_6_VM(uint256)": {
        "notice": "Final signature verification ================================================== From o1js: let { x: rx, y: ry } = Group.fromProjective(R); return Field.isEven(ry) && Field.equal(rx, r); Two conditions must be met: 1. R.x equals signature.r 2. R.y is even"
      },
      "vmCounter()": {
        "notice": "Counter for tracking total number of verification processes"
      },
      "vmLifeCycle(uint256)": {
        "notice": "Maps verification IDs to their respective state structures"
      },
      "vmLifeCycleBytesCompressed(uint256)": {
        "notice": "Maps verification IDs to their respective state structures compressed into bytes form. Doesn't store intermediate states but only the important bits."
      },
      "vmLifeCycleCreator(uint256)": {
        "notice": "Maps verification IDs to their creators' addresses"
      }
    },
    "version": 1
  },
  "storageLayout": {
    "storage": [
      {
        "astId": 1100,
        "contract": "contracts/CORE_MessageVerification.sol:PallasMessageSignatureVerifier",
        "label": "mdsMatrix",
        "offset": 0,
        "slot": "0",
        "type": "t_array(t_array(t_uint256)3_storage)3_storage"
      },
      {
        "astId": 1507,
        "contract": "contracts/CORE_MessageVerification.sol:PallasMessageSignatureVerifier",
        "label": "roundConstants",
        "offset": 0,
        "slot": "9",
        "type": "t_array(t_array(t_uint256)3_storage)100_storage"
      },
      {
        "astId": 17,
        "contract": "contracts/CORE_MessageVerification.sol:PallasMessageSignatureVerifier",
        "label": "vmCounter",
        "offset": 0,
        "slot": "309",
        "type": "t_uint256"
      },
      {
        "astId": 22,
        "contract": "contracts/CORE_MessageVerification.sol:PallasMessageSignatureVerifier",
        "label": "vmLifeCycleCreator",
        "offset": 0,
        "slot": "310",
        "type": "t_mapping(t_uint256,t_address)"
      },
      {
        "astId": 28,
        "contract": "contracts/CORE_MessageVerification.sol:PallasMessageSignatureVerifier",
        "label": "vmLifeCycle",
        "offset": 0,
        "slot": "311",
        "type": "t_mapping(t_uint256,t_struct(VerifyMessageState)1032_storage)"
      },
      {
        "astId": 33,
        "contract": "contracts/CORE_MessageVerification.sol:PallasMessageSignatureVerifier",
        "label": "vmLifeCycleBytesCompressed",
        "offset": 0,
        "slot": "312",
        "type": "t_mapping(t_uint256,t_bytes_storage)"
      }
    ],
    "types": {
      "t_address": {
        "encoding": "inplace",
        "label": "address",
        "numberOfBytes": "20"
      },
      "t_array(t_array(t_uint256)3_storage)100_storage": {
        "base": "t_array(t_uint256)3_storage",
        "encoding": "inplace",
        "label": "uint256[3][100]",
        "numberOfBytes": "9600"
      },
      "t_array(t_array(t_uint256)3_storage)3_storage": {
        "base": "t_array(t_uint256)3_storage",
        "encoding": "inplace",
        "label": "uint256[3][3]",
        "numberOfBytes": "288"
      },
      "t_array(t_uint256)3_storage": {
        "base": "t_uint256",
        "encoding": "inplace",
        "label": "uint256[3]",
        "numberOfBytes": "96"
      },
      "t_bool": {
        "encoding": "inplace",
        "label": "bool",
        "numberOfBytes": "1"
      },
      "t_bytes_storage": {
        "encoding": "bytes",
        "label": "bytes",
        "numberOfBytes": "32"
      },
      "t_mapping(t_uint256,t_address)": {
        "encoding": "mapping",
        "key": "t_uint256",
        "label": "mapping(uint256 => address)",
        "numberOfBytes": "32",
        "value": "t_address"
      },
      "t_mapping(t_uint256,t_bytes_storage)": {
        "encoding": "mapping",
        "key": "t_uint256",
        "label": "mapping(uint256 => bytes)",
        "numberOfBytes": "32",
        "value": "t_bytes_storage"
      },
      "t_mapping(t_uint256,t_struct(VerifyMessageState)1032_storage)": {
        "encoding": "mapping",
        "key": "t_uint256",
        "label": "mapping(uint256 => struct PallasTypes.VerifyMessageState)",
        "numberOfBytes": "32",
        "value": "t_struct(VerifyMessageState)1032_storage"
      },
      "t_string_storage": {
        "encoding": "bytes",
        "label": "string",
        "numberOfBytes": "32"
      },
      "t_struct(Point)885_storage": {
        "encoding": "inplace",
        "label": "struct PallasTypes.Point",
        "members": [
          {
            "astId": 882,
            "contract": "contracts/CORE_MessageVerification.sol:PallasMessageSignatureVerifier",
            "label": "x",
            "offset": 0,
            "slot": "0",
            "type": "t_uint256"
          },
          {
            "astId": 884,
            "contract": "contracts/CORE_MessageVerification.sol:PallasMessageSignatureVerifier",
            "label": "y",
            "offset": 0,
            "slot": "1",
            "type": "t_uint256"
          }
        ],
        "numberOfBytes": "64"
      },
      "t_struct(Signature)897_storage": {
        "encoding": "inplace",
        "label": "struct PallasTypes.Signature",
        "members": [
          {
            "astId": 894,
            "contract": "contracts/CORE_MessageVerification.sol:PallasMessageSignatureVerifier",
            "label": "r",
            "offset": 0,
            "slot": "0",
            "type": "t_uint256"
          },
          {
            "astId": 896,
            "contract": "contracts/CORE_MessageVerification.sol:PallasMessageSignatureVerifier",
            "label": "s",
            "offset": 0,
            "slot": "1",
            "type": "t_uint256"
          }
        ],
        "numberOfBytes": "64"
      },
      "t_struct(VerifyMessageState)1032_storage": {
        "encoding": "inplace",
        "label": "struct PallasTypes.VerifyMessageState",
        "members": [
          {
            "astId": 989,
            "contract": "contracts/CORE_MessageVerification.sol:PallasMessageSignatureVerifier",
            "label": "init",
            "offset": 0,
            "slot": "0",
            "type": "t_bool"
          },
          {
            "astId": 992,
            "contract": "contracts/CORE_MessageVerification.sol:PallasMessageSignatureVerifier",
            "label": "mainnet",
            "offset": 1,
            "slot": "0",
            "type": "t_bool"
          },
          {
            "astId": 995,
            "contract": "contracts/CORE_MessageVerification.sol:PallasMessageSignatureVerifier",
            "label": "isValid",
            "offset": 2,
            "slot": "0",
            "type": "t_bool"
          },
          {
            "astId": 998,
            "contract": "contracts/CORE_MessageVerification.sol:PallasMessageSignatureVerifier",
            "label": "atStep",
            "offset": 3,
            "slot": "0",
            "type": "t_uint8"
          },
          {
            "astId": 1002,
            "contract": "contracts/CORE_MessageVerification.sol:PallasMessageSignatureVerifier",
            "label": "publicKey",
            "offset": 0,
            "slot": "1",
            "type": "t_struct(Point)885_storage"
          },
          {
            "astId": 1006,
            "contract": "contracts/CORE_MessageVerification.sol:PallasMessageSignatureVerifier",
            "label": "signature",
            "offset": 0,
            "slot": "3",
            "type": "t_struct(Signature)897_storage"
          },
          {
            "astId": 1009,
            "contract": "contracts/CORE_MessageVerification.sol:PallasMessageSignatureVerifier",
            "label": "messageHash",
            "offset": 0,
            "slot": "5",
            "type": "t_uint256"
          },
          {
            "astId": 1013,
            "contract": "contracts/CORE_MessageVerification.sol:PallasMessageSignatureVerifier",
            "label": "pkInGroup",
            "offset": 0,
            "slot": "6",
            "type": "t_struct(Point)885_storage"
          },
          {
            "astId": 1017,
            "contract": "contracts/CORE_MessageVerification.sol:PallasMessageSignatureVerifier",
            "label": "sG",
            "offset": 0,
            "slot": "8",
            "type": "t_struct(Point)885_storage"
          },
          {
            "astId": 1021,
            "contract": "contracts/CORE_MessageVerification.sol:PallasMessageSignatureVerifier",
            "label": "ePk",
            "offset": 0,
            "slot": "10",
            "type": "t_struct(Point)885_storage"
          },
          {
            "astId": 1025,
            "contract": "contracts/CORE_MessageVerification.sol:PallasMessageSignatureVerifier",
            "label": "R",
            "offset": 0,
            "slot": "12",
            "type": "t_struct(Point)885_storage"
          },
          {
            "astId": 1028,
            "contract": "contracts/CORE_MessageVerification.sol:PallasMessageSignatureVerifier",
            "label": "message",
            "offset": 0,
            "slot": "14",
            "type": "t_string_storage"
          },
          {
            "astId": 1031,
            "contract": "contracts/CORE_MessageVerification.sol:PallasMessageSignatureVerifier",
            "label": "prefix",
            "offset": 0,
            "slot": "15",
            "type": "t_string_storage"
          }
        ],
        "numberOfBytes": "512"
      },
      "t_uint256": {
        "encoding": "inplace",
        "label": "uint256",
        "numberOfBytes": "32"
      },
      "t_uint8": {
        "encoding": "inplace",
        "label": "uint8",
        "numberOfBytes": "1"
      }
    }
  }
}